{
  "_format": "hh-sol-artifact-1",
  "contractName": "TimelockController",
  "sourceName": "@openzeppelin/contracts/governance/TimelockController.sol",
  "abi": [
    {
      "inputs": [
        {
          "internalType": "uint256",
          "name": "minDelay",
          "type": "uint256"
        },
        {
          "internalType": "address[]",
          "name": "proposers",
          "type": "address[]"
        },
        {
          "internalType": "address[]",
          "name": "executors",
          "type": "address[]"
        },
        {
          "internalType": "address",
          "name": "admin",
          "type": "address"
        }
      ],
      "stateMutability": "nonpayable",
      "type": "constructor"
    },
    {
      "inputs": [],
      "name": "AccessControlBadConfirmation",
      "type": "error"
    },
    {
      "inputs": [
        {
          "internalType": "address",
          "name": "account",
          "type": "address"
        },
        {
          "internalType": "bytes32",
          "name": "neededRole",
          "type": "bytes32"
        }
      ],
      "name": "AccessControlUnauthorizedAccount",
      "type": "error"
    },
    {
      "inputs": [],
      "name": "FailedCall",
      "type": "error"
    },
    {
      "inputs": [
        {
          "internalType": "uint256",
          "name": "delay",
          "type": "uint256"
        },
        {
          "internalType": "uint256",
          "name": "minDelay",
          "type": "uint256"
        }
      ],
      "name": "TimelockInsufficientDelay",
      "type": "error"
    },
    {
      "inputs": [
        {
          "internalType": "uint256",
          "name": "targets",
          "type": "uint256"
        },
        {
          "internalType": "uint256",
          "name": "payloads",
          "type": "uint256"
        },
        {
          "internalType": "uint256",
          "name": "values",
          "type": "uint256"
        }
      ],
      "name": "TimelockInvalidOperationLength",
      "type": "error"
    },
    {
      "inputs": [
        {
          "internalType": "address",
          "name": "caller",
          "type": "address"
        }
      ],
      "name": "TimelockUnauthorizedCaller",
      "type": "error"
    },
    {
      "inputs": [
        {
          "internalType": "bytes32",
          "name": "predecessorId",
          "type": "bytes32"
        }
      ],
      "name": "TimelockUnexecutedPredecessor",
      "type": "error"
    },
    {
      "inputs": [
        {
          "internalType": "bytes32",
          "name": "operationId",
          "type": "bytes32"
        },
        {
          "internalType": "bytes32",
          "name": "expectedStates",
          "type": "bytes32"
        }
      ],
      "name": "TimelockUnexpectedOperationState",
      "type": "error"
    },
    {
      "anonymous": false,
      "inputs": [
        {
          "indexed": true,
          "internalType": "bytes32",
          "name": "id",
          "type": "bytes32"
        },
        {
          "indexed": true,
          "internalType": "uint256",
          "name": "index",
          "type": "uint256"
        },
        {
          "indexed": false,
          "internalType": "address",
          "name": "target",
          "type": "address"
        },
        {
          "indexed": false,
          "internalType": "uint256",
          "name": "value",
          "type": "uint256"
        },
        {
          "indexed": false,
          "internalType": "bytes",
          "name": "data",
          "type": "bytes"
        }
      ],
      "name": "CallExecuted",
      "type": "event"
    },
    {
      "anonymous": false,
      "inputs": [
        {
          "indexed": true,
          "internalType": "bytes32",
          "name": "id",
          "type": "bytes32"
        },
        {
          "indexed": false,
          "internalType": "bytes32",
          "name": "salt",
          "type": "bytes32"
        }
      ],
      "name": "CallSalt",
      "type": "event"
    },
    {
      "anonymous": false,
      "inputs": [
        {
          "indexed": true,
          "internalType": "bytes32",
          "name": "id",
          "type": "bytes32"
        },
        {
          "indexed": true,
          "internalType": "uint256",
          "name": "index",
          "type": "uint256"
        },
        {
          "indexed": false,
          "internalType": "address",
          "name": "target",
          "type": "address"
        },
        {
          "indexed": false,
          "internalType": "uint256",
          "name": "value",
          "type": "uint256"
        },
        {
          "indexed": false,
          "internalType": "bytes",
          "name": "data",
          "type": "bytes"
        },
        {
          "indexed": false,
          "internalType": "bytes32",
          "name": "predecessor",
          "type": "bytes32"
        },
        {
          "indexed": false,
          "internalType": "uint256",
          "name": "delay",
          "type": "uint256"
        }
      ],
      "name": "CallScheduled",
      "type": "event"
    },
    {
      "anonymous": false,
      "inputs": [
        {
          "indexed": true,
          "internalType": "bytes32",
          "name": "id",
          "type": "bytes32"
        }
      ],
      "name": "Cancelled",
      "type": "event"
    },
    {
      "anonymous": false,
      "inputs": [
        {
          "indexed": false,
          "internalType": "uint256",
          "name": "oldDuration",
          "type": "uint256"
        },
        {
          "indexed": false,
          "internalType": "uint256",
          "name": "newDuration",
          "type": "uint256"
        }
      ],
      "name": "MinDelayChange",
      "type": "event"
    },
    {
      "anonymous": false,
      "inputs": [
        {
          "indexed": true,
          "internalType": "bytes32",
          "name": "role",
          "type": "bytes32"
        },
        {
          "indexed": true,
          "internalType": "bytes32",
          "name": "previousAdminRole",
          "type": "bytes32"
        },
        {
          "indexed": true,
          "internalType": "bytes32",
          "name": "newAdminRole",
          "type": "bytes32"
        }
      ],
      "name": "RoleAdminChanged",
      "type": "event"
    },
    {
      "anonymous": false,
      "inputs": [
        {
          "indexed": true,
          "internalType": "bytes32",
          "name": "role",
          "type": "bytes32"
        },
        {
          "indexed": true,
          "internalType": "address",
          "name": "account",
          "type": "address"
        },
        {
          "indexed": true,
          "internalType": "address",
          "name": "sender",
          "type": "address"
        }
      ],
      "name": "RoleGranted",
      "type": "event"
    },
    {
      "anonymous": false,
      "inputs": [
        {
          "indexed": true,
          "internalType": "bytes32",
          "name": "role",
          "type": "bytes32"
        },
        {
          "indexed": true,
          "internalType": "address",
          "name": "account",
          "type": "address"
        },
        {
          "indexed": true,
          "internalType": "address",
          "name": "sender",
          "type": "address"
        }
      ],
      "name": "RoleRevoked",
      "type": "event"
    },
    {
      "inputs": [],
      "name": "CANCELLER_ROLE",
      "outputs": [
        {
          "internalType": "bytes32",
          "name": "",
          "type": "bytes32"
        }
      ],
      "stateMutability": "view",
      "type": "function"
    },
    {
      "inputs": [],
      "name": "DEFAULT_ADMIN_ROLE",
      "outputs": [
        {
          "internalType": "bytes32",
          "name": "",
          "type": "bytes32"
        }
      ],
      "stateMutability": "view",
      "type": "function"
    },
    {
      "inputs": [],
      "name": "EXECUTOR_ROLE",
      "outputs": [
        {
          "internalType": "bytes32",
          "name": "",
          "type": "bytes32"
        }
      ],
      "stateMutability": "view",
      "type": "function"
    },
    {
      "inputs": [],
      "name": "PROPOSER_ROLE",
      "outputs": [
        {
          "internalType": "bytes32",
          "name": "",
          "type": "bytes32"
        }
      ],
      "stateMutability": "view",
      "type": "function"
    },
    {
      "inputs": [
        {
          "internalType": "bytes32",
          "name": "id",
          "type": "bytes32"
        }
      ],
      "name": "cancel",
      "outputs": [],
      "stateMutability": "nonpayable",
      "type": "function"
    },
    {
      "inputs": [
        {
          "internalType": "address",
          "name": "target",
          "type": "address"
        },
        {
          "internalType": "uint256",
          "name": "value",
          "type": "uint256"
        },
        {
          "internalType": "bytes",
          "name": "payload",
          "type": "bytes"
        },
        {
          "internalType": "bytes32",
          "name": "predecessor",
          "type": "bytes32"
        },
        {
          "internalType": "bytes32",
          "name": "salt",
          "type": "bytes32"
        }
      ],
      "name": "execute",
      "outputs": [],
      "stateMutability": "payable",
      "type": "function"
    },
    {
      "inputs": [
        {
          "internalType": "address[]",
          "name": "targets",
          "type": "address[]"
        },
        {
          "internalType": "uint256[]",
          "name": "values",
          "type": "uint256[]"
        },
        {
          "internalType": "bytes[]",
          "name": "payloads",
          "type": "bytes[]"
        },
        {
          "internalType": "bytes32",
          "name": "predecessor",
          "type": "bytes32"
        },
        {
          "internalType": "bytes32",
          "name": "salt",
          "type": "bytes32"
        }
      ],
      "name": "executeBatch",
      "outputs": [],
      "stateMutability": "payable",
      "type": "function"
    },
    {
      "inputs": [],
      "name": "getMinDelay",
      "outputs": [
        {
          "internalType": "uint256",
          "name": "",
          "type": "uint256"
        }
      ],
      "stateMutability": "view",
      "type": "function"
    },
    {
      "inputs": [
        {
          "internalType": "bytes32",
          "name": "id",
          "type": "bytes32"
        }
      ],
      "name": "getOperationState",
      "outputs": [
        {
          "internalType": "enum TimelockController.OperationState",
          "name": "",
          "type": "uint8"
        }
      ],
      "stateMutability": "view",
      "type": "function"
    },
    {
      "inputs": [
        {
          "internalType": "bytes32",
          "name": "role",
          "type": "bytes32"
        }
      ],
      "name": "getRoleAdmin",
      "outputs": [
        {
          "internalType": "bytes32",
          "name": "",
          "type": "bytes32"
        }
      ],
      "stateMutability": "view",
      "type": "function"
    },
    {
      "inputs": [
        {
          "internalType": "bytes32",
          "name": "id",
          "type": "bytes32"
        }
      ],
      "name": "getTimestamp",
      "outputs": [
        {
          "internalType": "uint256",
          "name": "",
          "type": "uint256"
        }
      ],
      "stateMutability": "view",
      "type": "function"
    },
    {
      "inputs": [
        {
          "internalType": "bytes32",
          "name": "role",
          "type": "bytes32"
        },
        {
          "internalType": "address",
          "name": "account",
          "type": "address"
        }
      ],
      "name": "grantRole",
      "outputs": [],
      "stateMutability": "nonpayable",
      "type": "function"
    },
    {
      "inputs": [
        {
          "internalType": "bytes32",
          "name": "role",
          "type": "bytes32"
        },
        {
          "internalType": "address",
          "name": "account",
          "type": "address"
        }
      ],
      "name": "hasRole",
      "outputs": [
        {
          "internalType": "bool",
          "name": "",
          "type": "bool"
        }
      ],
      "stateMutability": "view",
      "type": "function"
    },
    {
      "inputs": [
        {
          "internalType": "address",
          "name": "target",
          "type": "address"
        },
        {
          "internalType": "uint256",
          "name": "value",
          "type": "uint256"
        },
        {
          "internalType": "bytes",
          "name": "data",
          "type": "bytes"
        },
        {
          "internalType": "bytes32",
          "name": "predecessor",
          "type": "bytes32"
        },
        {
          "internalType": "bytes32",
          "name": "salt",
          "type": "bytes32"
        }
      ],
      "name": "hashOperation",
      "outputs": [
        {
          "internalType": "bytes32",
          "name": "",
          "type": "bytes32"
        }
      ],
      "stateMutability": "pure",
      "type": "function"
    },
    {
      "inputs": [
        {
          "internalType": "address[]",
          "name": "targets",
          "type": "address[]"
        },
        {
          "internalType": "uint256[]",
          "name": "values",
          "type": "uint256[]"
        },
        {
          "internalType": "bytes[]",
          "name": "payloads",
          "type": "bytes[]"
        },
        {
          "internalType": "bytes32",
          "name": "predecessor",
          "type": "bytes32"
        },
        {
          "internalType": "bytes32",
          "name": "salt",
          "type": "bytes32"
        }
      ],
      "name": "hashOperationBatch",
      "outputs": [
        {
          "internalType": "bytes32",
          "name": "",
          "type": "bytes32"
        }
      ],
      "stateMutability": "pure",
      "type": "function"
    },
    {
      "inputs": [
        {
          "internalType": "bytes32",
          "name": "id",
          "type": "bytes32"
        }
      ],
      "name": "isOperation",
      "outputs": [
        {
          "internalType": "bool",
          "name": "",
          "type": "bool"
        }
      ],
      "stateMutability": "view",
      "type": "function"
    },
    {
      "inputs": [
        {
          "internalType": "bytes32",
          "name": "id",
          "type": "bytes32"
        }
      ],
      "name": "isOperationDone",
      "outputs": [
        {
          "internalType": "bool",
          "name": "",
          "type": "bool"
        }
      ],
      "stateMutability": "view",
      "type": "function"
    },
    {
      "inputs": [
        {
          "internalType": "bytes32",
          "name": "id",
          "type": "bytes32"
        }
      ],
      "name": "isOperationPending",
      "outputs": [
        {
          "internalType": "bool",
          "name": "",
          "type": "bool"
        }
      ],
      "stateMutability": "view",
      "type": "function"
    },
    {
      "inputs": [
        {
          "internalType": "bytes32",
          "name": "id",
          "type": "bytes32"
        }
      ],
      "name": "isOperationReady",
      "outputs": [
        {
          "internalType": "bool",
          "name": "",
          "type": "bool"
        }
      ],
      "stateMutability": "view",
      "type": "function"
    },
    {
      "inputs": [
        {
          "internalType": "address",
          "name": "",
          "type": "address"
        },
        {
          "internalType": "address",
          "name": "",
          "type": "address"
        },
        {
          "internalType": "uint256[]",
          "name": "",
          "type": "uint256[]"
        },
        {
          "internalType": "uint256[]",
          "name": "",
          "type": "uint256[]"
        },
        {
          "internalType": "bytes",
          "name": "",
          "type": "bytes"
        }
      ],
      "name": "onERC1155BatchReceived",
      "outputs": [
        {
          "internalType": "bytes4",
          "name": "",
          "type": "bytes4"
        }
      ],
      "stateMutability": "nonpayable",
      "type": "function"
    },
    {
      "inputs": [
        {
          "internalType": "address",
          "name": "",
          "type": "address"
        },
        {
          "internalType": "address",
          "name": "",
          "type": "address"
        },
        {
          "internalType": "uint256",
          "name": "",
          "type": "uint256"
        },
        {
          "internalType": "uint256",
          "name": "",
          "type": "uint256"
        },
        {
          "internalType": "bytes",
          "name": "",
          "type": "bytes"
        }
      ],
      "name": "onERC1155Received",
      "outputs": [
        {
          "internalType": "bytes4",
          "name": "",
          "type": "bytes4"
        }
      ],
      "stateMutability": "nonpayable",
      "type": "function"
    },
    {
      "inputs": [
        {
          "internalType": "address",
          "name": "",
          "type": "address"
        },
        {
          "internalType": "address",
          "name": "",
          "type": "address"
        },
        {
          "internalType": "uint256",
          "name": "",
          "type": "uint256"
        },
        {
          "internalType": "bytes",
          "name": "",
          "type": "bytes"
        }
      ],
      "name": "onERC721Received",
      "outputs": [
        {
          "internalType": "bytes4",
          "name": "",
          "type": "bytes4"
        }
      ],
      "stateMutability": "nonpayable",
      "type": "function"
    },
    {
      "inputs": [
        {
          "internalType": "bytes32",
          "name": "role",
          "type": "bytes32"
        },
        {
          "internalType": "address",
          "name": "callerConfirmation",
          "type": "address"
        }
      ],
      "name": "renounceRole",
      "outputs": [],
      "stateMutability": "nonpayable",
      "type": "function"
    },
    {
      "inputs": [
        {
          "internalType": "bytes32",
          "name": "role",
          "type": "bytes32"
        },
        {
          "internalType": "address",
          "name": "account",
          "type": "address"
        }
      ],
      "name": "revokeRole",
      "outputs": [],
      "stateMutability": "nonpayable",
      "type": "function"
    },
    {
      "inputs": [
        {
          "internalType": "address",
          "name": "target",
          "type": "address"
        },
        {
          "internalType": "uint256",
          "name": "value",
          "type": "uint256"
        },
        {
          "internalType": "bytes",
          "name": "data",
          "type": "bytes"
        },
        {
          "internalType": "bytes32",
          "name": "predecessor",
          "type": "bytes32"
        },
        {
          "internalType": "bytes32",
          "name": "salt",
          "type": "bytes32"
        },
        {
          "internalType": "uint256",
          "name": "delay",
          "type": "uint256"
        }
      ],
      "name": "schedule",
      "outputs": [],
      "stateMutability": "nonpayable",
      "type": "function"
    },
    {
      "inputs": [
        {
          "internalType": "address[]",
          "name": "targets",
          "type": "address[]"
        },
        {
          "internalType": "uint256[]",
          "name": "values",
          "type": "uint256[]"
        },
        {
          "internalType": "bytes[]",
          "name": "payloads",
          "type": "bytes[]"
        },
        {
          "internalType": "bytes32",
          "name": "predecessor",
          "type": "bytes32"
        },
        {
          "internalType": "bytes32",
          "name": "salt",
          "type": "bytes32"
        },
        {
          "internalType": "uint256",
          "name": "delay",
          "type": "uint256"
        }
      ],
      "name": "scheduleBatch",
      "outputs": [],
      "stateMutability": "nonpayable",
      "type": "function"
    },
    {
      "inputs": [
        {
          "internalType": "bytes4",
          "name": "interfaceId",
          "type": "bytes4"
        }
      ],
      "name": "supportsInterface",
      "outputs": [
        {
          "internalType": "bool",
          "name": "",
          "type": "bool"
        }
      ],
      "stateMutability": "view",
      "type": "function"
    },
    {
      "inputs": [
        {
          "internalType": "uint256",
          "name": "newDelay",
          "type": "uint256"
        }
      ],
      "name": "updateDelay",
      "outputs": [],
      "stateMutability": "nonpayable",
      "type": "function"
    },
    {
      "stateMutability": "payable",
      "type": "receive"
    }
  ],
  "bytecode": "0x608060405234801561000f575f80fd5b506040516130c23803806130c283398181016040528101906100319190610530565b6100435f801b306101e360201b60201c565b505f73ffffffffffffffffffffffffffffffffffffffff168173ffffffffffffffffffffffffffffffffffffffff161461008b576100895f801b826101e360201b60201c565b505b5f5b8351811015610137576100e07fb09aa5aeb3702cfd50b6b62bc4532604938f21248a27a1d5ca736082b6819cc18583815181106100cd576100cc6105cc565b5b60200260200101516101e360201b60201c565b5061012b7ffd643c72710c63c0180259aba6b2d05451e3591a24e58b62239378085726f783858381518110610118576101176105cc565b5b60200260200101516101e360201b60201c565b5080600101905061008d565b505f5b82518110156101995761018d7fd8aa0f3194971a2a116679f7c2090f6939c8d4e01a2a8d7e41d55e5351469e6384838151811061017a576101796105cc565b5b60200260200101516101e360201b60201c565b5080600101905061013a565b50836002819055507f11c24f4ead16507c69ac467fbd5e4eed5fb5c699626d2cc6d66421df253886d55f856040516101d292919061064a565b60405180910390a150505050610671565b5f6101f483836102d860201b60201c565b6102ce5760015f808581526020019081526020015f205f015f8473ffffffffffffffffffffffffffffffffffffffff1673ffffffffffffffffffffffffffffffffffffffff1681526020019081526020015f205f6101000a81548160ff02191690831515021790555061026b61033b60201b60201c565b73ffffffffffffffffffffffffffffffffffffffff168273ffffffffffffffffffffffffffffffffffffffff16847f2f8788117e7eff1d82e926ec794901d17c78024a50270940304540a733656f0d60405160405180910390a4600190506102d2565b5f90505b92915050565b5f805f8481526020019081526020015f205f015f8373ffffffffffffffffffffffffffffffffffffffff1673ffffffffffffffffffffffffffffffffffffffff1681526020019081526020015f205f9054906101000a900460ff16905092915050565b5f33905090565b5f604051905090565b5f80fd5b5f80fd5b5f819050919050565b61036581610353565b811461036f575f80fd5b50565b5f815190506103808161035c565b92915050565b5f80fd5b5f601f19601f8301169050919050565b7f4e487b71000000000000000000000000000000000000000000000000000000005f52604160045260245ffd5b6103d08261038a565b810181811067ffffffffffffffff821117156103ef576103ee61039a565b5b80604052505050565b5f610401610342565b905061040d82826103c7565b919050565b5f67ffffffffffffffff82111561042c5761042b61039a565b5b602082029050602081019050919050565b5f80fd5b5f73ffffffffffffffffffffffffffffffffffffffff82169050919050565b5f61046a82610441565b9050919050565b61047a81610460565b8114610484575f80fd5b50565b5f8151905061049581610471565b92915050565b5f6104ad6104a884610412565b6103f8565b905080838252602082019050602084028301858111156104d0576104cf61043d565b5b835b818110156104f957806104e58882610487565b8452602084019350506020810190506104d2565b5050509392505050565b5f82601f83011261051757610516610386565b5b815161052784826020860161049b565b91505092915050565b5f805f80608085870312156105485761054761034b565b5b5f61055587828801610372565b945050602085015167ffffffffffffffff8111156105765761057561034f565b5b61058287828801610503565b935050604085015167ffffffffffffffff8111156105a3576105a261034f565b5b6105af87828801610503565b92505060606105c087828801610487565b91505092959194509250565b7f4e487b71000000000000000000000000000000000000000000000000000000005f52603260045260245ffd5b5f819050919050565b5f819050919050565b5f61062561062061061b846105f9565b610602565b610353565b9050919050565b6106358161060b565b82525050565b61064481610353565b82525050565b5f60408201905061065d5f83018561062c565b61066a602083018461063b565b9392505050565b612a448061067e5f395ff3fe6080604052600436106101ba575f3560e01c80638065657f116100eb578063bc197c8111610089578063d547741f11610063578063d547741f14610685578063e38335e5146106ad578063f23a6e61146106c9578063f27a0c9214610705576101c1565b8063bc197c81146105e5578063c4d252f514610621578063d45c443514610649576101c1565b806391d14854116100c557806391d1485414610519578063a217fddf14610555578063b08e51c01461057f578063b1c5f427146105a9576101c1565b80638065657f1461048b5780638f2a0bb0146104c75780638f61f4f5146104ef576101c1565b80632ab0f5291161015857806336568abe1161013257806336568abe146103c3578063584b153e146103eb57806364d62353146104275780637958004c1461044f576101c1565b80632ab0f529146103235780632f2ff15d1461035f57806331d5075014610387576101c1565b8063134008d311610194578063134008d31461025357806313bc9f201461026f578063150b7a02146102ab578063248a9ca3146102e7576101c1565b806301d5062a146101c557806301ffc9a7146101ed57806307bd026514610229576101c1565b366101c157005b5f80fd5b3480156101d0575f80fd5b506101eb60048036038101906101e6919061198a565b61072f565b005b3480156101f8575f80fd5b50610213600480360381019061020e9190611a89565b610804565b6040516102209190611ace565b60405180910390f35b348015610234575f80fd5b5061023d610815565b60405161024a9190611af6565b60405180910390f35b61026d60048036038101906102689190611b0f565b610839565b005b34801561027a575f80fd5b5061029560048036038101906102909190611ba5565b6108f3565b6040516102a29190611ace565b60405180910390f35b3480156102b6575f80fd5b506102d160048036038101906102cc9190611d08565b61092b565b6040516102de9190611d97565b60405180910390f35b3480156102f2575f80fd5b5061030d60048036038101906103089190611ba5565b61093e565b60405161031a9190611af6565b60405180910390f35b34801561032e575f80fd5b5061034960048036038101906103449190611ba5565b61095a565b6040516103569190611ace565b60405180910390f35b34801561036a575f80fd5b5061038560048036038101906103809190611db0565b610991565b005b348015610392575f80fd5b506103ad60048036038101906103a89190611ba5565b6109b3565b6040516103ba9190611ace565b60405180910390f35b3480156103ce575f80fd5b506103e960048036038101906103e49190611db0565b6109eb565b005b3480156103f6575f80fd5b50610411600480360381019061040c9190611ba5565b610a66565b60405161041e9190611ace565b60405180910390f35b348015610432575f80fd5b5061044d60048036038101906104489190611dee565b610ad2565b005b34801561045a575f80fd5b5061047560048036038101906104709190611ba5565b610b93565b6040516104829190611e8c565b60405180910390f35b348015610496575f80fd5b506104b160048036038101906104ac9190611b0f565b610bdf565b6040516104be9190611af6565b60405180910390f35b3480156104d2575f80fd5b506104ed60048036038101906104e89190611fa4565b610c1d565b005b3480156104fa575f80fd5b50610503610ddc565b6040516105109190611af6565b60405180910390f35b348015610524575f80fd5b5061053f600480360381019061053a9190611db0565b610e00565b60405161054c9190611ace565b60405180910390f35b348015610560575f80fd5b50610569610e63565b6040516105769190611af6565b60405180910390f35b34801561058a575f80fd5b50610593610e69565b6040516105a09190611af6565b60405180910390f35b3480156105b4575f80fd5b506105cf60048036038101906105ca919061208d565b610e8d565b6040516105dc9190611af6565b60405180910390f35b3480156105f0575f80fd5b5061060b60048036038101906106069190612224565b610ed1565b6040516106189190611d97565b60405180910390f35b34801561062c575f80fd5b5061064760048036038101906106429190611ba5565b610ee5565b005b348015610654575f80fd5b5061066f600480360381019061066a9190611ba5565b610fb4565b60405161067c91906122fe565b60405180910390f35b348015610690575f80fd5b506106ab60048036038101906106a69190611db0565b610fce565b005b6106c760048036038101906106c2919061208d565b610ff0565b005b3480156106d4575f80fd5b506106ef60048036038101906106ea9190612317565b6111a8565b6040516106fc9190611d97565b60405180910390f35b348015610710575f80fd5b506107196111bc565b60405161072691906122fe565b60405180910390f35b7fb09aa5aeb3702cfd50b6b62bc4532604938f21248a27a1d5ca736082b6819cc1610759816111c5565b5f610768898989898989610bdf565b905061077481846111d9565b5f817f4cf4410cc57040e44862ef0f45f3dd5a5e02db8eb8add648d4b0e236f1d07dca8b8b8b8b8b8a6040516107af969594939291906123f5565b60405180910390a35f801b84146107f957807f20fda5fd27a1ea7bf5b9567f143ac5470bb059374a27e8f67cb44f946f6d0387856040516107f09190611af6565b60405180910390a25b505050505050505050565b5f61080e826112a6565b9050919050565b7fd8aa0f3194971a2a116679f7c2090f6939c8d4e01a2a8d7e41d55e5351469e6381565b7fd8aa0f3194971a2a116679f7c2090f6939c8d4e01a2a8d7e41d55e5351469e63610864815f610e00565b61087a576108798161087461131f565b611326565b5b5f610889888888888888610bdf565b90506108958185611377565b6108a18888888861142a565b5f817fc2617efa69bab66782fa219543714338489c4e9e178271560a91b82c3f612b588a8a8a8a6040516108d8949392919061244f565b60405180910390a36108e9816114ab565b5050505050505050565b5f6002600381111561090857610907611e19565b5b61091183610b93565b600381111561092357610922611e19565b5b149050919050565b5f63150b7a0260e01b9050949350505050565b5f805f8381526020019081526020015f20600101549050919050565b5f60038081111561096e5761096d611e19565b5b61097783610b93565b600381111561098957610988611e19565b5b149050919050565b61099a8261093e565b6109a3816111c5565b6109ad8383611519565b50505050565b5f8060038111156109c7576109c6611e19565b5b6109d083610b93565b60038111156109e2576109e1611e19565b5b14159050919050565b6109f361131f565b73ffffffffffffffffffffffffffffffffffffffff168173ffffffffffffffffffffffffffffffffffffffff1614610a57576040517f6697b23200000000000000000000000000000000000000000000000000000000815260040160405180910390fd5b610a618282611602565b505050565b5f80610a7183610b93565b905060016003811115610a8757610a86611e19565b5b816003811115610a9a57610a99611e19565b5b1480610aca575060026003811115610ab557610ab4611e19565b5b816003811115610ac857610ac7611e19565b5b145b915050919050565b5f610adb61131f565b90503073ffffffffffffffffffffffffffffffffffffffff168173ffffffffffffffffffffffffffffffffffffffff1614610b4d57806040517fe2850c59000000000000000000000000000000000000000000000000000000008152600401610b44919061248d565b60405180910390fd5b7f11c24f4ead16507c69ac467fbd5e4eed5fb5c699626d2cc6d66421df253886d560025483604051610b809291906124a6565b60405180910390a1816002819055505050565b5f80610b9e83610fb4565b90505f8103610bb0575f915050610bda565b60018103610bc2576003915050610bda565b42811115610bd4576001915050610bda565b60029150505b919050565b5f868686868686604051602001610bfb969594939291906124cd565b6040516020818303038152906040528051906020012090509695505050505050565b7fb09aa5aeb3702cfd50b6b62bc4532604938f21248a27a1d5ca736082b6819cc1610c47816111c5565b878790508a8a9050141580610c625750858590508a8a905014155b15610cb1578989905086869050898990506040517fffb03211000000000000000000000000000000000000000000000000000000008152600401610ca893929190612527565b60405180910390fd5b5f610cc28b8b8b8b8b8b8b8b610e8d565b9050610cce81846111d9565b5f5b8b8b9050811015610d8c5780827f4cf4410cc57040e44862ef0f45f3dd5a5e02db8eb8add648d4b0e236f1d07dca8e8e85818110610d1157610d1061255c565b5b9050602002016020810190610d269190612589565b8d8d86818110610d3957610d3861255c565b5b905060200201358c8c87818110610d5357610d5261255c565b5b9050602002810190610d6591906125c0565b8c8b604051610d79969594939291906123f5565b60405180910390a3806001019050610cd0565b505f801b8414610dcf57807f20fda5fd27a1ea7bf5b9567f143ac5470bb059374a27e8f67cb44f946f6d038785604051610dc69190611af6565b60405180910390a25b5050505050505050505050565b7fb09aa5aeb3702cfd50b6b62bc4532604938f21248a27a1d5ca736082b6819cc181565b5f805f8481526020019081526020015f205f015f8373ffffffffffffffffffffffffffffffffffffffff1673ffffffffffffffffffffffffffffffffffffffff1681526020019081526020015f205f9054906101000a900460ff16905092915050565b5f801b81565b7ffd643c72710c63c0180259aba6b2d05451e3591a24e58b62239378085726f78381565b5f8888888888888888604051602001610ead9897969594939291906128ae565b60405160208183030381529060405280519060200120905098975050505050505050565b5f63bc197c8160e01b905095945050505050565b7ffd643c72710c63c0180259aba6b2d05451e3591a24e58b62239378085726f783610f0f816111c5565b610f1882610a66565b610f6f5781610f2760026116eb565b610f3160016116eb565b176040517f5ead8eb5000000000000000000000000000000000000000000000000000000008152600401610f6692919061291a565b60405180910390fd5b60015f8381526020019081526020015f205f9055817fbaa1eb22f2a492ba1a5fea61b8df4d27c6c8b5f3971e63bb58fa14ff72eedb7060405160405180910390a25050565b5f60015f8381526020019081526020015f20549050919050565b610fd78261093e565b610fe0816111c5565b610fea8383611602565b50505050565b7fd8aa0f3194971a2a116679f7c2090f6939c8d4e01a2a8d7e41d55e5351469e6361101b815f610e00565b611031576110308161102b61131f565b611326565b5b868690508989905014158061104c5750848490508989905014155b1561109b578888905085859050888890506040517fffb0321100000000000000000000000000000000000000000000000000000000815260040161109293929190612527565b60405180910390fd5b5f6110ac8a8a8a8a8a8a8a8a610e8d565b90506110b88185611377565b5f5b8a8a9050811015611192575f8b8b838181106110d9576110d861255c565b5b90506020020160208101906110ee9190612589565b90505f8a8a848181106111045761110361255c565b5b905060200201359050365f8a8a868181106111225761112161255c565b5b905060200281019061113491906125c0565b915091506111448484848461142a565b84867fc2617efa69bab66782fa219543714338489c4e9e178271560a91b82c3f612b588686868660405161117b949392919061244f565b60405180910390a3505050508060010190506110ba565b5061119c816114ab565b50505050505050505050565b5f63f23a6e6160e01b905095945050505050565b5f600254905090565b6111d6816111d161131f565b611326565b50565b6111e2826109b3565b1561122e57816111f15f6116eb565b6040517f5ead8eb500000000000000000000000000000000000000000000000000000000815260040161122592919061291a565b60405180910390fd5b5f6112376111bc565b9050808210156112805781816040517f543366090000000000000000000000000000000000000000000000000000000081526004016112779291906124a6565b60405180910390fd5b814261128c919061296e565b60015f8581526020019081526020015f2081905550505050565b5f7f4e2312e0000000000000000000000000000000000000000000000000000000007bffffffffffffffffffffffffffffffffffffffffffffffffffffffff1916827bffffffffffffffffffffffffffffffffffffffffffffffffffffffff1916148061131857506113178261170f565b5b9050919050565b5f33905090565b6113308282610e00565b6113735780826040517fe2517d3f00000000000000000000000000000000000000000000000000000000815260040161136a9291906129a1565b60405180910390fd5b5050565b611380826108f3565b6113cc578161138f60026116eb565b6040517f5ead8eb50000000000000000000000000000000000000000000000000000000081526004016113c392919061291a565b60405180910390fd5b5f801b81141580156113e457506113e28161095a565b155b1561142657806040517f90a9a61800000000000000000000000000000000000000000000000000000000815260040161141d9190611af6565b60405180910390fd5b5050565b5f808573ffffffffffffffffffffffffffffffffffffffff168585856040516114549291906129f6565b5f6040518083038185875af1925050503d805f811461148e576040519150601f19603f3d011682016040523d82523d5f602084013e611493565b606091505b50915091506114a28282611788565b50505050505050565b6114b4816108f3565b61150057806114c360026116eb565b6040517f5ead8eb50000000000000000000000000000000000000000000000000000000081526004016114f792919061291a565b60405180910390fd5b6001805f8381526020019081526020015f208190555050565b5f6115248383610e00565b6115f85760015f808581526020019081526020015f205f015f8473ffffffffffffffffffffffffffffffffffffffff1673ffffffffffffffffffffffffffffffffffffffff1681526020019081526020015f205f6101000a81548160ff02191690831515021790555061159561131f565b73ffffffffffffffffffffffffffffffffffffffff168273ffffffffffffffffffffffffffffffffffffffff16847f2f8788117e7eff1d82e926ec794901d17c78024a50270940304540a733656f0d60405160405180910390a4600190506115fc565b5f90505b92915050565b5f61160d8383610e00565b156116e1575f805f8581526020019081526020015f205f015f8473ffffffffffffffffffffffffffffffffffffffff1673ffffffffffffffffffffffffffffffffffffffff1681526020019081526020015f205f6101000a81548160ff02191690831515021790555061167e61131f565b73ffffffffffffffffffffffffffffffffffffffff168273ffffffffffffffffffffffffffffffffffffffff16847ff6391f5c32d9c69d2a47ea670b442974b53935d1edc7fd64eb21e047a839171b60405160405180910390a4600190506116e5565b5f90505b92915050565b5f8160038111156116ff576116fe611e19565b5b60ff166001901b5f1b9050919050565b5f7f7965db0b000000000000000000000000000000000000000000000000000000007bffffffffffffffffffffffffffffffffffffffffffffffffffffffff1916827bffffffffffffffffffffffffffffffffffffffffffffffffffffffff191614806117815750611780826117ac565b5b9050919050565b60608261179d5761179882611815565b6117a5565b8190506117a6565b5b92915050565b5f7f01ffc9a7000000000000000000000000000000000000000000000000000000007bffffffffffffffffffffffffffffffffffffffffffffffffffffffff1916827bffffffffffffffffffffffffffffffffffffffffffffffffffffffff1916149050919050565b5f8151111561182657805160208201fd5b6040517fd6bda27500000000000000000000000000000000000000000000000000000000815260040160405180910390fd5b5f604051905090565b5f80fd5b5f80fd5b5f73ffffffffffffffffffffffffffffffffffffffff82169050919050565b5f61189282611869565b9050919050565b6118a281611888565b81146118ac575f80fd5b50565b5f813590506118bd81611899565b92915050565b5f819050919050565b6118d5816118c3565b81146118df575f80fd5b50565b5f813590506118f0816118cc565b92915050565b5f80fd5b5f80fd5b5f80fd5b5f8083601f840112611917576119166118f6565b5b8235905067ffffffffffffffff811115611934576119336118fa565b5b6020830191508360018202830111156119505761194f6118fe565b5b9250929050565b5f819050919050565b61196981611957565b8114611973575f80fd5b50565b5f8135905061198481611960565b92915050565b5f805f805f805f60c0888a0312156119a5576119a4611861565b5b5f6119b28a828b016118af565b97505060206119c38a828b016118e2565b965050604088013567ffffffffffffffff8111156119e4576119e3611865565b5b6119f08a828b01611902565b95509550506060611a038a828b01611976565b9350506080611a148a828b01611976565b92505060a0611a258a828b016118e2565b91505092959891949750929550565b5f7fffffffff0000000000000000000000000000000000000000000000000000000082169050919050565b611a6881611a34565b8114611a72575f80fd5b50565b5f81359050611a8381611a5f565b92915050565b5f60208284031215611a9e57611a9d611861565b5b5f611aab84828501611a75565b91505092915050565b5f8115159050919050565b611ac881611ab4565b82525050565b5f602082019050611ae15f830184611abf565b92915050565b611af081611957565b82525050565b5f602082019050611b095f830184611ae7565b92915050565b5f805f805f8060a08789031215611b2957611b28611861565b5b5f611b3689828a016118af565b9650506020611b4789828a016118e2565b955050604087013567ffffffffffffffff811115611b6857611b67611865565b5b611b7489828a01611902565b94509450506060611b8789828a01611976565b9250506080611b9889828a01611976565b9150509295509295509295565b5f60208284031215611bba57611bb9611861565b5b5f611bc784828501611976565b91505092915050565b5f80fd5b5f601f19601f8301169050919050565b7f4e487b71000000000000000000000000000000000000000000000000000000005f52604160045260245ffd5b611c1a82611bd4565b810181811067ffffffffffffffff82111715611c3957611c38611be4565b5b80604052505050565b5f611c4b611858565b9050611c578282611c11565b919050565b5f67ffffffffffffffff821115611c7657611c75611be4565b5b611c7f82611bd4565b9050602081019050919050565b828183375f83830152505050565b5f611cac611ca784611c5c565b611c42565b905082815260208101848484011115611cc857611cc7611bd0565b5b611cd3848285611c8c565b509392505050565b5f82601f830112611cef57611cee6118f6565b5b8135611cff848260208601611c9a565b91505092915050565b5f805f8060808587031215611d2057611d1f611861565b5b5f611d2d878288016118af565b9450506020611d3e878288016118af565b9350506040611d4f878288016118e2565b925050606085013567ffffffffffffffff811115611d7057611d6f611865565b5b611d7c87828801611cdb565b91505092959194509250565b611d9181611a34565b82525050565b5f602082019050611daa5f830184611d88565b92915050565b5f8060408385031215611dc657611dc5611861565b5b5f611dd385828601611976565b9250506020611de4858286016118af565b9150509250929050565b5f60208284031215611e0357611e02611861565b5b5f611e10848285016118e2565b91505092915050565b7f4e487b71000000000000000000000000000000000000000000000000000000005f52602160045260245ffd5b60048110611e5757611e56611e19565b5b50565b5f819050611e6782611e46565b919050565b5f611e7682611e5a565b9050919050565b611e8681611e6c565b82525050565b5f602082019050611e9f5f830184611e7d565b92915050565b5f8083601f840112611eba57611eb96118f6565b5b8235905067ffffffffffffffff811115611ed757611ed66118fa565b5b602083019150836020820283011115611ef357611ef26118fe565b5b9250929050565b5f8083601f840112611f0f57611f0e6118f6565b5b8235905067ffffffffffffffff811115611f2c57611f2b6118fa565b5b602083019150836020820283011115611f4857611f476118fe565b5b9250929050565b5f8083601f840112611f6457611f636118f6565b5b8235905067ffffffffffffffff811115611f8157611f806118fa565b5b602083019150836020820283011115611f9d57611f9c6118fe565b5b9250929050565b5f805f805f805f805f60c08a8c031215611fc157611fc0611861565b5b5f8a013567ffffffffffffffff811115611fde57611fdd611865565b5b611fea8c828d01611ea5565b995099505060208a013567ffffffffffffffff81111561200d5761200c611865565b5b6120198c828d01611efa565b975097505060408a013567ffffffffffffffff81111561203c5761203b611865565b5b6120488c828d01611f4f565b9550955050606061205b8c828d01611976565b935050608061206c8c828d01611976565b92505060a061207d8c828d016118e2565b9150509295985092959850929598565b5f805f805f805f8060a0898b0312156120a9576120a8611861565b5b5f89013567ffffffffffffffff8111156120c6576120c5611865565b5b6120d28b828c01611ea5565b9850985050602089013567ffffffffffffffff8111156120f5576120f4611865565b5b6121018b828c01611efa565b9650965050604089013567ffffffffffffffff81111561212457612123611865565b5b6121308b828c01611f4f565b945094505060606121438b828c01611976565b92505060806121548b828c01611976565b9150509295985092959890939650565b5f67ffffffffffffffff82111561217e5761217d611be4565b5b602082029050602081019050919050565b5f6121a161219c84612164565b611c42565b905080838252602082019050602084028301858111156121c4576121c36118fe565b5b835b818110156121ed57806121d988826118e2565b8452602084019350506020810190506121c6565b5050509392505050565b5f82601f83011261220b5761220a6118f6565b5b813561221b84826020860161218f565b91505092915050565b5f805f805f60a0868803121561223d5761223c611861565b5b5f61224a888289016118af565b955050602061225b888289016118af565b945050604086013567ffffffffffffffff81111561227c5761227b611865565b5b612288888289016121f7565b935050606086013567ffffffffffffffff8111156122a9576122a8611865565b5b6122b5888289016121f7565b925050608086013567ffffffffffffffff8111156122d6576122d5611865565b5b6122e288828901611cdb565b9150509295509295909350565b6122f8816118c3565b82525050565b5f6020820190506123115f8301846122ef565b92915050565b5f805f805f60a086880312156123305761232f611861565b5b5f61233d888289016118af565b955050602061234e888289016118af565b945050604061235f888289016118e2565b9350506060612370888289016118e2565b925050608086013567ffffffffffffffff81111561239157612390611865565b5b61239d88828901611cdb565b9150509295509295909350565b6123b381611888565b82525050565b5f82825260208201905092915050565b5f6123d483856123b9565b93506123e1838584611c8c565b6123ea83611bd4565b840190509392505050565b5f60a0820190506124085f8301896123aa565b61241560208301886122ef565b81810360408301526124288186886123c9565b90506124376060830185611ae7565b61244460808301846122ef565b979650505050505050565b5f6060820190506124625f8301876123aa565b61246f60208301866122ef565b81810360408301526124828184866123c9565b905095945050505050565b5f6020820190506124a05f8301846123aa565b92915050565b5f6040820190506124b95f8301856122ef565b6124c660208301846122ef565b9392505050565b5f60a0820190506124e05f8301896123aa565b6124ed60208301886122ef565b81810360408301526125008186886123c9565b905061250f6060830185611ae7565b61251c6080830184611ae7565b979650505050505050565b5f60608201905061253a5f8301866122ef565b61254760208301856122ef565b61255460408301846122ef565b949350505050565b7f4e487b71000000000000000000000000000000000000000000000000000000005f52603260045260245ffd5b5f6020828403121561259e5761259d611861565b5b5f6125ab848285016118af565b91505092915050565b5f80fd5b5f80fd5b5f80fd5b5f80833560016020038436030381126125dc576125db6125b4565b5b80840192508235915067ffffffffffffffff8211156125fe576125fd6125b8565b5b60208301925060018202360383131561261a576126196125bc565b5b509250929050565b5f82825260208201905092915050565b5f819050919050565b61264481611888565b82525050565b5f612655838361263b565b60208301905092915050565b5f61266f60208401846118af565b905092915050565b5f602082019050919050565b5f61268e8385612622565b935061269982612632565b805f5b858110156126d1576126ae8284612661565b6126b8888261264a565b97506126c383612677565b92505060018101905061269c565b5085925050509392505050565b5f82825260208201905092915050565b5f80fd5b82818337505050565b5f61270683856126de565b93507f07ffffffffffffffffffffffffffffffffffffffffffffffffffffffffffffff831115612739576127386126ee565b5b60208302925061274a8385846126f2565b82840190509392505050565b5f82825260208201905092915050565b5f819050919050565b5f82825260208201905092915050565b5f61278a838561276f565b9350612797838584611c8c565b6127a083611bd4565b840190509392505050565b5f6127b784848461277f565b90509392505050565b5f80fd5b5f80fd5b5f80fd5b5f80833560016020038436030381126127e8576127e76127c8565b5b83810192508235915060208301925067ffffffffffffffff8211156128105761280f6127c0565b5b600182023603831315612826576128256127c4565b5b509250929050565b5f602082019050919050565b5f6128458385612756565b93508360208402850161285784612766565b805f5b8781101561289c57848403895261287182846127cc565b61287c8682846127ab565b95506128878461282e565b935060208b019a50505060018101905061285a565b50829750879450505050509392505050565b5f60a0820190508181035f8301526128c7818a8c612683565b905081810360208301526128dc81888a6126fb565b905081810360408301526128f181868861283a565b90506129006060830185611ae7565b61290d6080830184611ae7565b9998505050505050505050565b5f60408201905061292d5f830185611ae7565b61293a6020830184611ae7565b9392505050565b7f4e487b71000000000000000000000000000000000000000000000000000000005f52601160045260245ffd5b5f612978826118c3565b9150612983836118c3565b925082820190508082111561299b5761299a612941565b5b92915050565b5f6040820190506129b45f8301856123aa565b6129c16020830184611ae7565b9392505050565b5f81905092915050565b5f6129dd83856129c8565b93506129ea838584611c8c565b82840190509392505050565b5f612a028284866129d2565b9150819050939250505056fea264697066735822122038e8fab2b375e168e1fb75e497a037446a0ce939fa1ebd7a6d0af23260e3bc6764736f6c634300081a0033",
  "linkReferences": {},
  "deployedLinkReferences": {}
}