{
  "_format": "hh-sol-artifact-1",
  "contractName": "DaoGovernor",
  "sourceName": "contracts/DaoGovernor.sol",
  "abi": [
    {
      "inputs": [
        {
          "internalType": "contract IVotes",
          "name": "token",
          "type": "address"
        },
        {
          "internalType": "contract TimelockController",
          "name": "timelock",
          "type": "address"
        }
      ],
      "stateMutability": "nonpayable",
      "type": "constructor"
    },
    {
      "inputs": [],
      "name": "CheckpointUnorderedInsertion",
      "type": "error"
    },
    {
      "inputs": [],
      "name": "FailedCall",
      "type": "error"
    },
    {
      "inputs": [
        {
          "internalType": "address",
          "name": "voter",
          "type": "address"
        }
      ],
      "name": "GovernorAlreadyCastVote",
      "type": "error"
    },
    {
      "inputs": [
        {
          "internalType": "uint256",
          "name": "proposalId",
          "type": "uint256"
        }
      ],
      "name": "GovernorAlreadyQueuedProposal",
      "type": "error"
    },
    {
      "inputs": [],
      "name": "GovernorDisabledDeposit",
      "type": "error"
    },
    {
      "inputs": [
        {
          "internalType": "address",
          "name": "proposer",
          "type": "address"
        },
        {
          "internalType": "uint256",
          "name": "votes",
          "type": "uint256"
        },
        {
          "internalType": "uint256",
          "name": "threshold",
          "type": "uint256"
        }
      ],
      "name": "GovernorInsufficientProposerVotes",
      "type": "error"
    },
    {
      "inputs": [
        {
          "internalType": "uint256",
          "name": "targets",
          "type": "uint256"
        },
        {
          "internalType": "uint256",
          "name": "calldatas",
          "type": "uint256"
        },
        {
          "internalType": "uint256",
          "name": "values",
          "type": "uint256"
        }
      ],
      "name": "GovernorInvalidProposalLength",
      "type": "error"
    },
    {
      "inputs": [
        {
          "internalType": "uint256",
          "name": "quorumNumerator",
          "type": "uint256"
        },
        {
          "internalType": "uint256",
          "name": "quorumDenominator",
          "type": "uint256"
        }
      ],
      "name": "GovernorInvalidQuorumFraction",
      "type": "error"
    },
    {
      "inputs": [
        {
          "internalType": "address",
          "name": "voter",
          "type": "address"
        }
      ],
      "name": "GovernorInvalidSignature",
      "type": "error"
    },
    {
      "inputs": [],
      "name": "GovernorInvalidVoteParams",
      "type": "error"
    },
    {
      "inputs": [],
      "name": "GovernorInvalidVoteType",
      "type": "error"
    },
    {
      "inputs": [
        {
          "internalType": "uint256",
          "name": "votingPeriod",
          "type": "uint256"
        }
      ],
      "name": "GovernorInvalidVotingPeriod",
      "type": "error"
    },
    {
      "inputs": [
        {
          "internalType": "uint256",
          "name": "proposalId",
          "type": "uint256"
        }
      ],
      "name": "GovernorNonexistentProposal",
      "type": "error"
    },
    {
      "inputs": [
        {
          "internalType": "uint256",
          "name": "proposalId",
          "type": "uint256"
        }
      ],
      "name": "GovernorNotQueuedProposal",
      "type": "error"
    },
    {
      "inputs": [
        {
          "internalType": "address",
          "name": "account",
          "type": "address"
        }
      ],
      "name": "GovernorOnlyExecutor",
      "type": "error"
    },
    {
      "inputs": [],
      "name": "GovernorQueueNotImplemented",
      "type": "error"
    },
    {
      "inputs": [
        {
          "internalType": "address",
          "name": "proposer",
          "type": "address"
        }
      ],
      "name": "GovernorRestrictedProposer",
      "type": "error"
    },
    {
      "inputs": [
        {
          "internalType": "uint256",
          "name": "proposalId",
          "type": "uint256"
        },
        {
          "internalType": "address",
          "name": "account",
          "type": "address"
        }
      ],
      "name": "GovernorUnableToCancel",
      "type": "error"
    },
    {
      "inputs": [
        {
          "internalType": "uint256",
          "name": "proposalId",
          "type": "uint256"
        },
        {
          "internalType": "enum IGovernor.ProposalState",
          "name": "current",
          "type": "uint8"
        },
        {
          "internalType": "bytes32",
          "name": "expectedStates",
          "type": "bytes32"
        }
      ],
      "name": "GovernorUnexpectedProposalState",
      "type": "error"
    },
    {
      "inputs": [
        {
          "internalType": "address",
          "name": "account",
          "type": "address"
        },
        {
          "internalType": "uint256",
          "name": "currentNonce",
          "type": "uint256"
        }
      ],
      "name": "InvalidAccountNonce",
      "type": "error"
    },
    {
      "inputs": [],
      "name": "InvalidShortString",
      "type": "error"
    },
    {
      "inputs": [
        {
          "internalType": "uint8",
          "name": "bits",
          "type": "uint8"
        },
        {
          "internalType": "uint256",
          "name": "value",
          "type": "uint256"
        }
      ],
      "name": "SafeCastOverflowedUintDowncast",
      "type": "error"
    },
    {
      "inputs": [
        {
          "internalType": "string",
          "name": "str",
          "type": "string"
        }
      ],
      "name": "StringTooLong",
      "type": "error"
    },
    {
      "anonymous": false,
      "inputs": [],
      "name": "EIP712DomainChanged",
      "type": "event"
    },
    {
      "anonymous": false,
      "inputs": [
        {
          "indexed": false,
          "internalType": "uint256",
          "name": "proposalId",
          "type": "uint256"
        }
      ],
      "name": "ProposalCanceled",
      "type": "event"
    },
    {
      "anonymous": false,
      "inputs": [
        {
          "indexed": false,
          "internalType": "uint256",
          "name": "proposalId",
          "type": "uint256"
        },
        {
          "indexed": false,
          "internalType": "address",
          "name": "proposer",
          "type": "address"
        },
        {
          "indexed": false,
          "internalType": "address[]",
          "name": "targets",
          "type": "address[]"
        },
        {
          "indexed": false,
          "internalType": "uint256[]",
          "name": "values",
          "type": "uint256[]"
        },
        {
          "indexed": false,
          "internalType": "string[]",
          "name": "signatures",
          "type": "string[]"
        },
        {
          "indexed": false,
          "internalType": "bytes[]",
          "name": "calldatas",
          "type": "bytes[]"
        },
        {
          "indexed": false,
          "internalType": "uint256",
          "name": "voteStart",
          "type": "uint256"
        },
        {
          "indexed": false,
          "internalType": "uint256",
          "name": "voteEnd",
          "type": "uint256"
        },
        {
          "indexed": false,
          "internalType": "string",
          "name": "description",
          "type": "string"
        }
      ],
      "name": "ProposalCreated",
      "type": "event"
    },
    {
      "anonymous": false,
      "inputs": [
        {
          "indexed": false,
          "internalType": "uint256",
          "name": "proposalId",
          "type": "uint256"
        }
      ],
      "name": "ProposalExecuted",
      "type": "event"
    },
    {
      "anonymous": false,
      "inputs": [
        {
          "indexed": false,
          "internalType": "uint256",
          "name": "proposalId",
          "type": "uint256"
        },
        {
          "indexed": false,
          "internalType": "uint256",
          "name": "etaSeconds",
          "type": "uint256"
        }
      ],
      "name": "ProposalQueued",
      "type": "event"
    },
    {
      "anonymous": false,
      "inputs": [
        {
          "indexed": false,
          "internalType": "uint256",
          "name": "oldProposalThreshold",
          "type": "uint256"
        },
        {
          "indexed": false,
          "internalType": "uint256",
          "name": "newProposalThreshold",
          "type": "uint256"
        }
      ],
      "name": "ProposalThresholdSet",
      "type": "event"
    },
    {
      "anonymous": false,
      "inputs": [
        {
          "indexed": false,
          "internalType": "uint256",
          "name": "oldQuorumNumerator",
          "type": "uint256"
        },
        {
          "indexed": false,
          "internalType": "uint256",
          "name": "newQuorumNumerator",
          "type": "uint256"
        }
      ],
      "name": "QuorumNumeratorUpdated",
      "type": "event"
    },
    {
      "anonymous": false,
      "inputs": [
        {
          "indexed": false,
          "internalType": "address",
          "name": "oldTimelock",
          "type": "address"
        },
        {
          "indexed": false,
          "internalType": "address",
          "name": "newTimelock",
          "type": "address"
        }
      ],
      "name": "TimelockChange",
      "type": "event"
    },
    {
      "anonymous": false,
      "inputs": [
        {
          "indexed": true,
          "internalType": "address",
          "name": "voter",
          "type": "address"
        },
        {
          "indexed": false,
          "internalType": "uint256",
          "name": "proposalId",
          "type": "uint256"
        },
        {
          "indexed": false,
          "internalType": "uint8",
          "name": "support",
          "type": "uint8"
        },
        {
          "indexed": false,
          "internalType": "uint256",
          "name": "weight",
          "type": "uint256"
        },
        {
          "indexed": false,
          "internalType": "string",
          "name": "reason",
          "type": "string"
        }
      ],
      "name": "VoteCast",
      "type": "event"
    },
    {
      "anonymous": false,
      "inputs": [
        {
          "indexed": true,
          "internalType": "address",
          "name": "voter",
          "type": "address"
        },
        {
          "indexed": false,
          "internalType": "uint256",
          "name": "proposalId",
          "type": "uint256"
        },
        {
          "indexed": false,
          "internalType": "uint8",
          "name": "support",
          "type": "uint8"
        },
        {
          "indexed": false,
          "internalType": "uint256",
          "name": "weight",
          "type": "uint256"
        },
        {
          "indexed": false,
          "internalType": "string",
          "name": "reason",
          "type": "string"
        },
        {
          "indexed": false,
          "internalType": "bytes",
          "name": "params",
          "type": "bytes"
        }
      ],
      "name": "VoteCastWithParams",
      "type": "event"
    },
    {
      "anonymous": false,
      "inputs": [
        {
          "indexed": false,
          "internalType": "uint256",
          "name": "oldVotingDelay",
          "type": "uint256"
        },
        {
          "indexed": false,
          "internalType": "uint256",
          "name": "newVotingDelay",
          "type": "uint256"
        }
      ],
      "name": "VotingDelaySet",
      "type": "event"
    },
    {
      "anonymous": false,
      "inputs": [
        {
          "indexed": false,
          "internalType": "uint256",
          "name": "oldVotingPeriod",
          "type": "uint256"
        },
        {
          "indexed": false,
          "internalType": "uint256",
          "name": "newVotingPeriod",
          "type": "uint256"
        }
      ],
      "name": "VotingPeriodSet",
      "type": "event"
    },
    {
      "inputs": [],
      "name": "BALLOT_TYPEHASH",
      "outputs": [
        {
          "internalType": "bytes32",
          "name": "",
          "type": "bytes32"
        }
      ],
      "stateMutability": "view",
      "type": "function"
    },
    {
      "inputs": [],
      "name": "CLOCK_MODE",
      "outputs": [
        {
          "internalType": "string",
          "name": "",
          "type": "string"
        }
      ],
      "stateMutability": "view",
      "type": "function"
    },
    {
      "inputs": [],
      "name": "COUNTING_MODE",
      "outputs": [
        {
          "internalType": "string",
          "name": "",
          "type": "string"
        }
      ],
      "stateMutability": "pure",
      "type": "function"
    },
    {
      "inputs": [],
      "name": "EXTENDED_BALLOT_TYPEHASH",
      "outputs": [
        {
          "internalType": "bytes32",
          "name": "",
          "type": "bytes32"
        }
      ],
      "stateMutability": "view",
      "type": "function"
    },
    {
      "inputs": [
        {
          "internalType": "address[]",
          "name": "targets",
          "type": "address[]"
        },
        {
          "internalType": "uint256[]",
          "name": "values",
          "type": "uint256[]"
        },
        {
          "internalType": "bytes[]",
          "name": "calldatas",
          "type": "bytes[]"
        },
        {
          "internalType": "bytes32",
          "name": "descriptionHash",
          "type": "bytes32"
        }
      ],
      "name": "cancel",
      "outputs": [
        {
          "internalType": "uint256",
          "name": "",
          "type": "uint256"
        }
      ],
      "stateMutability": "nonpayable",
      "type": "function"
    },
    {
      "inputs": [
        {
          "internalType": "uint256",
          "name": "proposalId",
          "type": "uint256"
        },
        {
          "internalType": "uint8",
          "name": "support",
          "type": "uint8"
        }
      ],
      "name": "castVote",
      "outputs": [
        {
          "internalType": "uint256",
          "name": "",
          "type": "uint256"
        }
      ],
      "stateMutability": "nonpayable",
      "type": "function"
    },
    {
      "inputs": [
        {
          "internalType": "uint256",
          "name": "proposalId",
          "type": "uint256"
        },
        {
          "internalType": "uint8",
          "name": "support",
          "type": "uint8"
        },
        {
          "internalType": "address",
          "name": "voter",
          "type": "address"
        },
        {
          "internalType": "bytes",
          "name": "signature",
          "type": "bytes"
        }
      ],
      "name": "castVoteBySig",
      "outputs": [
        {
          "internalType": "uint256",
          "name": "",
          "type": "uint256"
        }
      ],
      "stateMutability": "nonpayable",
      "type": "function"
    },
    {
      "inputs": [
        {
          "internalType": "uint256",
          "name": "proposalId",
          "type": "uint256"
        },
        {
          "internalType": "uint8",
          "name": "support",
          "type": "uint8"
        },
        {
          "internalType": "string",
          "name": "reason",
          "type": "string"
        }
      ],
      "name": "castVoteWithReason",
      "outputs": [
        {
          "internalType": "uint256",
          "name": "",
          "type": "uint256"
        }
      ],
      "stateMutability": "nonpayable",
      "type": "function"
    },
    {
      "inputs": [
        {
          "internalType": "uint256",
          "name": "proposalId",
          "type": "uint256"
        },
        {
          "internalType": "uint8",
          "name": "support",
          "type": "uint8"
        },
        {
          "internalType": "string",
          "name": "reason",
          "type": "string"
        },
        {
          "internalType": "bytes",
          "name": "params",
          "type": "bytes"
        }
      ],
      "name": "castVoteWithReasonAndParams",
      "outputs": [
        {
          "internalType": "uint256",
          "name": "",
          "type": "uint256"
        }
      ],
      "stateMutability": "nonpayable",
      "type": "function"
    },
    {
      "inputs": [
        {
          "internalType": "uint256",
          "name": "proposalId",
          "type": "uint256"
        },
        {
          "internalType": "uint8",
          "name": "support",
          "type": "uint8"
        },
        {
          "internalType": "address",
          "name": "voter",
          "type": "address"
        },
        {
          "internalType": "string",
          "name": "reason",
          "type": "string"
        },
        {
          "internalType": "bytes",
          "name": "params",
          "type": "bytes"
        },
        {
          "internalType": "bytes",
          "name": "signature",
          "type": "bytes"
        }
      ],
      "name": "castVoteWithReasonAndParamsBySig",
      "outputs": [
        {
          "internalType": "uint256",
          "name": "",
          "type": "uint256"
        }
      ],
      "stateMutability": "nonpayable",
      "type": "function"
    },
    {
      "inputs": [],
      "name": "clock",
      "outputs": [
        {
          "internalType": "uint48",
          "name": "",
          "type": "uint48"
        }
      ],
      "stateMutability": "view",
      "type": "function"
    },
    {
      "inputs": [],
      "name": "eip712Domain",
      "outputs": [
        {
          "internalType": "bytes1",
          "name": "fields",
          "type": "bytes1"
        },
        {
          "internalType": "string",
          "name": "name",
          "type": "string"
        },
        {
          "internalType": "string",
          "name": "version",
          "type": "string"
        },
        {
          "internalType": "uint256",
          "name": "chainId",
          "type": "uint256"
        },
        {
          "internalType": "address",
          "name": "verifyingContract",
          "type": "address"
        },
        {
          "internalType": "bytes32",
          "name": "salt",
          "type": "bytes32"
        },
        {
          "internalType": "uint256[]",
          "name": "extensions",
          "type": "uint256[]"
        }
      ],
      "stateMutability": "view",
      "type": "function"
    },
    {
      "inputs": [
        {
          "internalType": "address[]",
          "name": "targets",
          "type": "address[]"
        },
        {
          "internalType": "uint256[]",
          "name": "values",
          "type": "uint256[]"
        },
        {
          "internalType": "bytes[]",
          "name": "calldatas",
          "type": "bytes[]"
        },
        {
          "internalType": "bytes32",
          "name": "descriptionHash",
          "type": "bytes32"
        }
      ],
      "name": "execute",
      "outputs": [
        {
          "internalType": "uint256",
          "name": "",
          "type": "uint256"
        }
      ],
      "stateMutability": "payable",
      "type": "function"
    },
    {
      "inputs": [
        {
          "internalType": "address[]",
          "name": "targets",
          "type": "address[]"
        },
        {
          "internalType": "uint256[]",
          "name": "values",
          "type": "uint256[]"
        },
        {
          "internalType": "bytes[]",
          "name": "calldatas",
          "type": "bytes[]"
        },
        {
          "internalType": "bytes32",
          "name": "descriptionHash",
          "type": "bytes32"
        }
      ],
      "name": "getProposalId",
      "outputs": [
        {
          "internalType": "uint256",
          "name": "",
          "type": "uint256"
        }
      ],
      "stateMutability": "view",
      "type": "function"
    },
    {
      "inputs": [
        {
          "internalType": "address",
          "name": "account",
          "type": "address"
        },
        {
          "internalType": "uint256",
          "name": "timepoint",
          "type": "uint256"
        }
      ],
      "name": "getVotes",
      "outputs": [
        {
          "internalType": "uint256",
          "name": "",
          "type": "uint256"
        }
      ],
      "stateMutability": "view",
      "type": "function"
    },
    {
      "inputs": [
        {
          "internalType": "address",
          "name": "account",
          "type": "address"
        },
        {
          "internalType": "uint256",
          "name": "timepoint",
          "type": "uint256"
        },
        {
          "internalType": "bytes",
          "name": "params",
          "type": "bytes"
        }
      ],
      "name": "getVotesWithParams",
      "outputs": [
        {
          "internalType": "uint256",
          "name": "",
          "type": "uint256"
        }
      ],
      "stateMutability": "view",
      "type": "function"
    },
    {
      "inputs": [
        {
          "internalType": "uint256",
          "name": "proposalId",
          "type": "uint256"
        },
        {
          "internalType": "address",
          "name": "account",
          "type": "address"
        }
      ],
      "name": "hasVoted",
      "outputs": [
        {
          "internalType": "bool",
          "name": "",
          "type": "bool"
        }
      ],
      "stateMutability": "view",
      "type": "function"
    },
    {
      "inputs": [
        {
          "internalType": "address[]",
          "name": "targets",
          "type": "address[]"
        },
        {
          "internalType": "uint256[]",
          "name": "values",
          "type": "uint256[]"
        },
        {
          "internalType": "bytes[]",
          "name": "calldatas",
          "type": "bytes[]"
        },
        {
          "internalType": "bytes32",
          "name": "descriptionHash",
          "type": "bytes32"
        }
      ],
      "name": "hashProposal",
      "outputs": [
        {
          "internalType": "uint256",
          "name": "",
          "type": "uint256"
        }
      ],
      "stateMutability": "pure",
      "type": "function"
    },
    {
      "inputs": [],
      "name": "name",
      "outputs": [
        {
          "internalType": "string",
          "name": "",
          "type": "string"
        }
      ],
      "stateMutability": "view",
      "type": "function"
    },
    {
      "inputs": [
        {
          "internalType": "address",
          "name": "owner",
          "type": "address"
        }
      ],
      "name": "nonces",
      "outputs": [
        {
          "internalType": "uint256",
          "name": "",
          "type": "uint256"
        }
      ],
      "stateMutability": "view",
      "type": "function"
    },
    {
      "inputs": [
        {
          "internalType": "address",
          "name": "",
          "type": "address"
        },
        {
          "internalType": "address",
          "name": "",
          "type": "address"
        },
        {
          "internalType": "uint256[]",
          "name": "",
          "type": "uint256[]"
        },
        {
          "internalType": "uint256[]",
          "name": "",
          "type": "uint256[]"
        },
        {
          "internalType": "bytes",
          "name": "",
          "type": "bytes"
        }
      ],
      "name": "onERC1155BatchReceived",
      "outputs": [
        {
          "internalType": "bytes4",
          "name": "",
          "type": "bytes4"
        }
      ],
      "stateMutability": "nonpayable",
      "type": "function"
    },
    {
      "inputs": [
        {
          "internalType": "address",
          "name": "",
          "type": "address"
        },
        {
          "internalType": "address",
          "name": "",
          "type": "address"
        },
        {
          "internalType": "uint256",
          "name": "",
          "type": "uint256"
        },
        {
          "internalType": "uint256",
          "name": "",
          "type": "uint256"
        },
        {
          "internalType": "bytes",
          "name": "",
          "type": "bytes"
        }
      ],
      "name": "onERC1155Received",
      "outputs": [
        {
          "internalType": "bytes4",
          "name": "",
          "type": "bytes4"
        }
      ],
      "stateMutability": "nonpayable",
      "type": "function"
    },
    {
      "inputs": [
        {
          "internalType": "address",
          "name": "",
          "type": "address"
        },
        {
          "internalType": "address",
          "name": "",
          "type": "address"
        },
        {
          "internalType": "uint256",
          "name": "",
          "type": "uint256"
        },
        {
          "internalType": "bytes",
          "name": "",
          "type": "bytes"
        }
      ],
      "name": "onERC721Received",
      "outputs": [
        {
          "internalType": "bytes4",
          "name": "",
          "type": "bytes4"
        }
      ],
      "stateMutability": "nonpayable",
      "type": "function"
    },
    {
      "inputs": [
        {
          "internalType": "uint256",
          "name": "proposalId",
          "type": "uint256"
        }
      ],
      "name": "proposalDeadline",
      "outputs": [
        {
          "internalType": "uint256",
          "name": "",
          "type": "uint256"
        }
      ],
      "stateMutability": "view",
      "type": "function"
    },
    {
      "inputs": [
        {
          "internalType": "uint256",
          "name": "proposalId",
          "type": "uint256"
        }
      ],
      "name": "proposalEta",
      "outputs": [
        {
          "internalType": "uint256",
          "name": "",
          "type": "uint256"
        }
      ],
      "stateMutability": "view",
      "type": "function"
    },
    {
      "inputs": [
        {
          "internalType": "uint256",
          "name": "proposalId",
          "type": "uint256"
        }
      ],
      "name": "proposalNeedsQueuing",
      "outputs": [
        {
          "internalType": "bool",
          "name": "",
          "type": "bool"
        }
      ],
      "stateMutability": "view",
      "type": "function"
    },
    {
      "inputs": [
        {
          "internalType": "uint256",
          "name": "proposalId",
          "type": "uint256"
        }
      ],
      "name": "proposalProposer",
      "outputs": [
        {
          "internalType": "address",
          "name": "",
          "type": "address"
        }
      ],
      "stateMutability": "view",
      "type": "function"
    },
    {
      "inputs": [
        {
          "internalType": "uint256",
          "name": "proposalId",
          "type": "uint256"
        }
      ],
      "name": "proposalSnapshot",
      "outputs": [
        {
          "internalType": "uint256",
          "name": "",
          "type": "uint256"
        }
      ],
      "stateMutability": "view",
      "type": "function"
    },
    {
      "inputs": [],
      "name": "proposalThreshold",
      "outputs": [
        {
          "internalType": "uint256",
          "name": "",
          "type": "uint256"
        }
      ],
      "stateMutability": "view",
      "type": "function"
    },
    {
      "inputs": [
        {
          "internalType": "uint256",
          "name": "proposalId",
          "type": "uint256"
        }
      ],
      "name": "proposalVotes",
      "outputs": [
        {
          "internalType": "uint256",
          "name": "againstVotes",
          "type": "uint256"
        },
        {
          "internalType": "uint256",
          "name": "forVotes",
          "type": "uint256"
        },
        {
          "internalType": "uint256",
          "name": "abstainVotes",
          "type": "uint256"
        }
      ],
      "stateMutability": "view",
      "type": "function"
    },
    {
      "inputs": [
        {
          "internalType": "address[]",
          "name": "targets",
          "type": "address[]"
        },
        {
          "internalType": "uint256[]",
          "name": "values",
          "type": "uint256[]"
        },
        {
          "internalType": "bytes[]",
          "name": "calldatas",
          "type": "bytes[]"
        },
        {
          "internalType": "string",
          "name": "description",
          "type": "string"
        }
      ],
      "name": "propose",
      "outputs": [
        {
          "internalType": "uint256",
          "name": "",
          "type": "uint256"
        }
      ],
      "stateMutability": "nonpayable",
      "type": "function"
    },
    {
      "inputs": [
        {
          "internalType": "address[]",
          "name": "targets",
          "type": "address[]"
        },
        {
          "internalType": "uint256[]",
          "name": "values",
          "type": "uint256[]"
        },
        {
          "internalType": "bytes[]",
          "name": "calldatas",
          "type": "bytes[]"
        },
        {
          "internalType": "bytes32",
          "name": "descriptionHash",
          "type": "bytes32"
        }
      ],
      "name": "queue",
      "outputs": [
        {
          "internalType": "uint256",
          "name": "",
          "type": "uint256"
        }
      ],
      "stateMutability": "nonpayable",
      "type": "function"
    },
    {
      "inputs": [
        {
          "internalType": "uint256",
          "name": "timepoint",
          "type": "uint256"
        }
      ],
      "name": "quorum",
      "outputs": [
        {
          "internalType": "uint256",
          "name": "",
          "type": "uint256"
        }
      ],
      "stateMutability": "view",
      "type": "function"
    },
    {
      "inputs": [],
      "name": "quorumDenominator",
      "outputs": [
        {
          "internalType": "uint256",
          "name": "",
          "type": "uint256"
        }
      ],
      "stateMutability": "view",
      "type": "function"
    },
    {
      "inputs": [
        {
          "internalType": "uint256",
          "name": "timepoint",
          "type": "uint256"
        }
      ],
      "name": "quorumNumerator",
      "outputs": [
        {
          "internalType": "uint256",
          "name": "",
          "type": "uint256"
        }
      ],
      "stateMutability": "view",
      "type": "function"
    },
    {
      "inputs": [],
      "name": "quorumNumerator",
      "outputs": [
        {
          "internalType": "uint256",
          "name": "",
          "type": "uint256"
        }
      ],
      "stateMutability": "view",
      "type": "function"
    },
    {
      "inputs": [
        {
          "internalType": "address",
          "name": "target",
          "type": "address"
        },
        {
          "internalType": "uint256",
          "name": "value",
          "type": "uint256"
        },
        {
          "internalType": "bytes",
          "name": "data",
          "type": "bytes"
        }
      ],
      "name": "relay",
      "outputs": [],
      "stateMutability": "payable",
      "type": "function"
    },
    {
      "inputs": [
        {
          "internalType": "uint256",
          "name": "newProposalThreshold",
          "type": "uint256"
        }
      ],
      "name": "setProposalThreshold",
      "outputs": [],
      "stateMutability": "nonpayable",
      "type": "function"
    },
    {
      "inputs": [
        {
          "internalType": "uint48",
          "name": "newVotingDelay",
          "type": "uint48"
        }
      ],
      "name": "setVotingDelay",
      "outputs": [],
      "stateMutability": "nonpayable",
      "type": "function"
    },
    {
      "inputs": [
        {
          "internalType": "uint32",
          "name": "newVotingPeriod",
          "type": "uint32"
        }
      ],
      "name": "setVotingPeriod",
      "outputs": [],
      "stateMutability": "nonpayable",
      "type": "function"
    },
    {
      "inputs": [
        {
          "internalType": "uint256",
          "name": "proposalId",
          "type": "uint256"
        }
      ],
      "name": "state",
      "outputs": [
        {
          "internalType": "enum IGovernor.ProposalState",
          "name": "",
          "type": "uint8"
        }
      ],
      "stateMutability": "view",
      "type": "function"
    },
    {
      "inputs": [
        {
          "internalType": "bytes4",
          "name": "interfaceId",
          "type": "bytes4"
        }
      ],
      "name": "supportsInterface",
      "outputs": [
        {
          "internalType": "bool",
          "name": "",
          "type": "bool"
        }
      ],
      "stateMutability": "view",
      "type": "function"
    },
    {
      "inputs": [],
      "name": "timelock",
      "outputs": [
        {
          "internalType": "address",
          "name": "",
          "type": "address"
        }
      ],
      "stateMutability": "view",
      "type": "function"
    },
    {
      "inputs": [],
      "name": "token",
      "outputs": [
        {
          "internalType": "contract IERC5805",
          "name": "",
          "type": "address"
        }
      ],
      "stateMutability": "view",
      "type": "function"
    },
    {
      "inputs": [
        {
          "internalType": "uint256",
          "name": "newQuorumNumerator",
          "type": "uint256"
        }
      ],
      "name": "updateQuorumNumerator",
      "outputs": [],
      "stateMutability": "nonpayable",
      "type": "function"
    },
    {
      "inputs": [
        {
          "internalType": "contract TimelockController",
          "name": "newTimelock",
          "type": "address"
        }
      ],
      "name": "updateTimelock",
      "outputs": [],
      "stateMutability": "nonpayable",
      "type": "function"
    },
    {
      "inputs": [],
      "name": "version",
      "outputs": [
        {
          "internalType": "string",
          "name": "",
          "type": "string"
        }
      ],
      "stateMutability": "view",
      "type": "function"
    },
    {
      "inputs": [],
      "name": "votingDelay",
      "outputs": [
        {
          "internalType": "uint256",
          "name": "",
          "type": "uint256"
        }
      ],
      "stateMutability": "view",
      "type": "function"
    },
    {
      "inputs": [],
      "name": "votingPeriod",
      "outputs": [
        {
          "internalType": "uint256",
          "name": "",
          "type": "uint256"
        }
      ],
      "stateMutability": "view",
      "type": "function"
    },
    {
      "stateMutability": "payable",
      "type": "receive"
    }
  ],
  "bytecode": "0x610180604052348015610010575f80fd5b5060405161851538038061851583398181016040528101906100329190610c07565b80600483600160055f6040518060400160405280600c81526020017f44414f20476f7665726e6f720000000000000000000000000000000000000000815250806100806101c760201b60201c565b6100935f8361020460201b90919060201c565b61012081815250506100af60018261020460201b90919060201c565b6101408181525050818051906020012060e08181525050808051906020012061010081815250504660a081815250506100ec61025160201b60201c565b608081815250503073ffffffffffffffffffffffffffffffffffffffff1660c08173ffffffffffffffffffffffffffffffffffffffff1681525050505080600390816101389190610e7f565b5050610149836102ab60201b60201c565b6101588261031e60201b60201c565b610167816103d760201b60201c565b5050508073ffffffffffffffffffffffffffffffffffffffff166101608173ffffffffffffffffffffffffffffffffffffffff1681525050506101af8161041c60201b60201c565b506101bf816104f660201b60201c565b5050506113dd565b60606040518060400160405280600181526020017f3100000000000000000000000000000000000000000000000000000000000000815250905090565b5f6020835110156102255761021e8361059360201b60201c565b905061024b565b82610235836105f860201b60201c565b5f0190816102439190610e7f565b5060ff5f1b90505b92915050565b5f7f8b73c3c69bb8fe3d512ecc4cf759cc79239f7b179b0ffacaa9a75d522b39400f60e051610100514630604051602001610290959493929190610f84565b60405160208183030381529060405280519060200120905090565b7fc565b045403dc03c2eea82b81a0465edad9e2e7fc4d97e11421c209da93d7a9360085f9054906101000a900465ffffffffffff16826040516102ef929190611016565b60405180910390a18060085f6101000a81548165ffffffffffff021916908365ffffffffffff16021790555050565b5f8163ffffffff1603610368575f6040517ff1cfbf0500000000000000000000000000000000000000000000000000000000815260040161035f9190611076565b60405180910390fd5b7f7e3f7f0708a84de9203036abaa450dccc85ad5ff52f78c170f3edb55cf5e8828600860069054906101000a900463ffffffff16826040516103ab9291906110ce565b60405180910390a180600860066101000a81548163ffffffff021916908363ffffffff16021790555050565b7fccb45da8d5717e6c4544694297c4ba5cf151d455c9bb0ed4fc7a38411bc054616007548260405161040a9291906110f5565b60405180910390a18060078190555050565b5f61042b61060160201b60201c565b9050808211156104745781816040517f243e544500000000000000000000000000000000000000000000000000000000815260040161046b9291906110f5565b60405180910390fd5b5f61048361060960201b60201c565b90506104b661049661063b60201b60201c565b6104a5856106d260201b60201c565b600a61073f60201b9092919060201c565b50507f0553476bf02ef2726e8ce5ced78d63e26e602e4a2257b1f559418e24b463399781846040516104e99291906110f5565b60405180910390a1505050565b7f08f74ea46ef7894f65eabfb5e6e695de773a000b47c529ab559178069b226401600b5f9054906101000a900473ffffffffffffffffffffffffffffffffffffffff168260405161054892919061111c565b60405180910390a180600b5f6101000a81548173ffffffffffffffffffffffffffffffffffffffff021916908373ffffffffffffffffffffffffffffffffffffffff16021790555050565b5f80829050601f815111156105df57826040517f305a27a90000000000000000000000000000000000000000000000000000000081526004016105d691906111a9565b60405180910390fd5b8051816105eb906111f6565b5f1c175f1b915050919050565b5f819050919050565b5f6064905090565b5f61061a600a61076060201b60201c565b79ffffffffffffffffffffffffffffffffffffffffffffffffffff16905090565b5f61064a6107c860201b60201c565b73ffffffffffffffffffffffffffffffffffffffff166391ddadf46040518163ffffffff1660e01b8152600401602060405180830381865afa9250505080156106b157506040513d601f19601f820116820180604052508101906106ae9190611286565b60015b6106ca576106c36107d260201b60201c565b90506106cf565b809150505b90565b5f79ffffffffffffffffffffffffffffffffffffffffffffffffffff80168211156107375760d0826040517f6dfcc65000000000000000000000000000000000000000000000000000000000815260040161072e9291906112f6565b60405180910390fd5b819050919050565b5f80610754855f0185856107e760201b60201c565b91509150935093915050565b5f80825f018054905090505f81146107be57610790835f01600183610785919061134a565b610ae160201b60201c565b5f0160069054906101000a900479ffffffffffffffffffffffffffffffffffffffffffffffffffff166107c0565b5f5b915050919050565b5f61016051905090565b5f6107e243610af360201b60201c565b905090565b5f805f858054905090505f8111156109f9575f6108168760018461080b919061134a565b610ae160201b60201c565b90505f815f015f9054906101000a900465ffffffffffff1690505f825f0160069054906101000a900479ffffffffffffffffffffffffffffffffffffffffffffffffffff1690508765ffffffffffff168265ffffffffffff1611156108a7576040517f2520601d00000000000000000000000000000000000000000000000000000000815260040160405180910390fd5b8765ffffffffffff168265ffffffffffff16036109115786835f0160066101000a81548179ffffffffffffffffffffffffffffffffffffffffffffffffffff021916908379ffffffffffffffffffffffffffffffffffffffffffffffffffff1602179055506109ea565b8860405180604001604052808a65ffffffffffff1681526020018979ffffffffffffffffffffffffffffffffffffffffffffffffffff16815250908060018154018082558091505060019003905f5260205f20015f909190919091505f820151815f015f6101000a81548165ffffffffffff021916908365ffffffffffff1602179055506020820151815f0160066101000a81548179ffffffffffffffffffffffffffffffffffffffffffffffffffff021916908379ffffffffffffffffffffffffffffffffffffffffffffffffffff16021790555050505b80879550955050505050610ad9565b8560405180604001604052808765ffffffffffff1681526020018679ffffffffffffffffffffffffffffffffffffffffffffffffffff16815250908060018154018082558091505060019003905f5260205f20015f909190919091505f820151815f015f6101000a81548165ffffffffffff021916908365ffffffffffff1602179055506020820151815f0160066101000a81548179ffffffffffffffffffffffffffffffffffffffffffffffffffff021916908379ffffffffffffffffffffffffffffffffffffffffffffffffffff16021790555050505f8492509250505b935093915050565b5f825f528160205f2001905092915050565b5f65ffffffffffff8016821115610b44576030826040517f6dfcc650000000000000000000000000000000000000000000000000000000008152600401610b3b9291906113b6565b60405180910390fd5b819050919050565b5f80fd5b5f73ffffffffffffffffffffffffffffffffffffffff82169050919050565b5f610b7982610b50565b9050919050565b5f610b8a82610b6f565b9050919050565b610b9a81610b80565b8114610ba4575f80fd5b50565b5f81519050610bb581610b91565b92915050565b5f610bc582610b50565b9050919050565b5f610bd682610bbb565b9050919050565b610be681610bcc565b8114610bf0575f80fd5b50565b5f81519050610c0181610bdd565b92915050565b5f8060408385031215610c1d57610c1c610b4c565b5b5f610c2a85828601610ba7565b9250506020610c3b85828601610bf3565b9150509250929050565b5f81519050919050565b7f4e487b71000000000000000000000000000000000000000000000000000000005f52604160045260245ffd5b7f4e487b71000000000000000000000000000000000000000000000000000000005f52602260045260245ffd5b5f6002820490506001821680610cc057607f821691505b602082108103610cd357610cd2610c7c565b5b50919050565b5f819050815f5260205f209050919050565b5f6020601f8301049050919050565b5f82821b905092915050565b5f60088302610d357fffffffffffffffffffffffffffffffffffffffffffffffffffffffffffffffff82610cfa565b610d3f8683610cfa565b95508019841693508086168417925050509392505050565b5f819050919050565b5f819050919050565b5f610d83610d7e610d7984610d57565b610d60565b610d57565b9050919050565b5f819050919050565b610d9c83610d69565b610db0610da882610d8a565b848454610d06565b825550505050565b5f90565b610dc4610db8565b610dcf818484610d93565b505050565b5b81811015610df257610de75f82610dbc565b600181019050610dd5565b5050565b601f821115610e3757610e0881610cd9565b610e1184610ceb565b81016020851015610e20578190505b610e34610e2c85610ceb565b830182610dd4565b50505b505050565b5f82821c905092915050565b5f610e575f1984600802610e3c565b1980831691505092915050565b5f610e6f8383610e48565b9150826002028217905092915050565b610e8882610c45565b67ffffffffffffffff811115610ea157610ea0610c4f565b5b610eab8254610ca9565b610eb6828285610df6565b5f60209050601f831160018114610ee7575f8415610ed5578287015190505b610edf8582610e64565b865550610f46565b601f198416610ef586610cd9565b5f5b82811015610f1c57848901518255600182019150602085019450602081019050610ef7565b86831015610f395784890151610f35601f891682610e48565b8355505b6001600288020188555050505b505050505050565b5f819050919050565b610f6081610f4e565b82525050565b610f6f81610d57565b82525050565b610f7e81610b6f565b82525050565b5f60a082019050610f975f830188610f57565b610fa46020830187610f57565b610fb16040830186610f57565b610fbe6060830185610f66565b610fcb6080830184610f75565b9695505050505050565b5f65ffffffffffff82169050919050565b5f611000610ffb610ff684610fd5565b610d60565b610d57565b9050919050565b61101081610fe6565b82525050565b5f6040820190506110295f830185611007565b6110366020830184611007565b9392505050565b5f819050919050565b5f61106061105b6110568461103d565b610d60565b610d57565b9050919050565b61107081611046565b82525050565b5f6020820190506110895f830184611067565b92915050565b5f63ffffffff82169050919050565b5f6110b86110b36110ae8461108f565b610d60565b610d57565b9050919050565b6110c88161109e565b82525050565b5f6040820190506110e15f8301856110bf565b6110ee60208301846110bf565b9392505050565b5f6040820190506111085f830185610f66565b6111156020830184610f66565b9392505050565b5f60408201905061112f5f830185610f75565b61113c6020830184610f75565b9392505050565b5f82825260208201905092915050565b8281835e5f83830152505050565b5f601f19601f8301169050919050565b5f61117b82610c45565b6111858185611143565b9350611195818560208601611153565b61119e81611161565b840191505092915050565b5f6020820190508181035f8301526111c18184611171565b905092915050565b5f81519050919050565b5f819050602082019050919050565b5f6111ed8251610f4e565b80915050919050565b5f611200826111c9565b8261120a846111d3565b9050611215816111e2565b92506020821015611255576112507fffffffffffffffffffffffffffffffffffffffffffffffffffffffffffffffff83602003600802610cfa565b831692505b5050919050565b61126581610fd5565b811461126f575f80fd5b50565b5f815190506112808161125c565b92915050565b5f6020828403121561129b5761129a610b4c565b5b5f6112a884828501611272565b91505092915050565b5f819050919050565b5f60ff82169050919050565b5f6112e06112db6112d6846112b1565b610d60565b6112ba565b9050919050565b6112f0816112c6565b82525050565b5f6040820190506113095f8301856112e7565b6113166020830184610f66565b9392505050565b7f4e487b71000000000000000000000000000000000000000000000000000000005f52601160045260245ffd5b5f61135482610d57565b915061135f83610d57565b92508282039050818111156113775761137661131d565b5b92915050565b5f819050919050565b5f6113a061139b6113968461137d565b610d60565b6112ba565b9050919050565b6113b081611386565b82525050565b5f6040820190506113c95f8301856113a7565b6113d66020830184610f66565b9392505050565b60805160a05160c05160e051610100516101205161014051610160516170dd6114385f395f611d4b01525f612bfc01525f612bc101525f6149f201525f6149d101525f61437f01525f6143d501525f6143fe01526170dd5ff3fe6080604052600436106102b1575f3560e01c80637ecebe0011610174578063bc197c81116100db578063deaaa7cc11610094578063ece40cc11161006e578063ece40cc114610c44578063f23a6e6114610c6c578063f8ce560a14610ca8578063fc0c546a14610ce457610324565b8063deaaa7cc14610bb6578063e540d01d14610be0578063eb9019d414610c0857610324565b8063bc197c8114610a92578063c01f9e3714610ace578063c28bc2fa14610b0a578063c59057e414610b26578063d33219b414610b62578063dd4e2ba514610b8c57610324565b8063a7713a701161012d578063a7713a7014610962578063a890c9101461098c578063a8f8a668146109b4578063a9a95294146109f0578063ab58fb8e14610a2c578063b58131b014610a6857610324565b80637ecebe001461082a57806384b0196e146108665780638ff262e31461089657806391ddadf4146108d257806397c3d334146108fc5780639a802a6d1461092657610324565b806343859632116102185780635b8d0e0d116101d15780635b8d0e0d146106d65780635f398a141461071257806360c4247f1461074e578063790518871461078a5780637b3c71d3146107b25780637d5e81e2146107ee57610324565b80634385963214610590578063452115d6146105cc5780634bf5d7e914610608578063544ffc9c1461063257806354fd4d5014610670578063567813881461069a57610324565b8063160cbed71161026a578063160cbed7146104585780632656227d146104945780632d63f693146104c45780632fe3e261146105005780633932abb11461052a5780633e4f49e61461055457610324565b806301ffc9a71461032857806302a251a31461036457806306f3f9e61461038e57806306fdde03146103b6578063143489d0146103e0578063150b7a021461041c57610324565b36610324573073ffffffffffffffffffffffffffffffffffffffff166102d5610d0e565b73ffffffffffffffffffffffffffffffffffffffff1614610322576040517fe90a651e00000000000000000000000000000000000000000000000000000000815260040160405180910390fd5b005b5f80fd5b348015610333575f80fd5b5061034e60048036038101906103499190614c92565b610d1c565b60405161035b9190614cd7565b60405180910390f35b34801561036f575f80fd5b50610378610d2d565b6040516103859190614d08565b60405180910390f35b348015610399575f80fd5b506103b460048036038101906103af9190614d4b565b610d3b565b005b3480156103c1575f80fd5b506103ca610d4f565b6040516103d79190614de6565b60405180910390f35b3480156103eb575f80fd5b5061040660048036038101906104019190614d4b565b610ddf565b6040516104139190614e45565b60405180910390f35b348015610427575f80fd5b50610442600480360381019061043d9190614fb4565b610e1a565b60405161044f9190615043565b60405180910390f35b348015610463575f80fd5b5061047e600480360381019061047991906152f1565b610e99565b60405161048b9190614d08565b60405180910390f35b6104ae60048036038101906104a991906152f1565b610f8f565b6040516104bb9190614d08565b60405180910390f35b3480156104cf575f80fd5b506104ea60048036038101906104e59190614d4b565b611169565b6040516104f79190614d08565b60405180910390f35b34801561050b575f80fd5b5061051461119f565b60405161052191906153b8565b60405180910390f35b348015610535575f80fd5b5061053e6111c3565b60405161054b9190614d08565b60405180910390f35b34801561055f575f80fd5b5061057a60048036038101906105759190614d4b565b6111d1565b6040516105879190615444565b60405180910390f35b34801561059b575f80fd5b506105b660048036038101906105b1919061545d565b6111e2565b6040516105c39190614cd7565b60405180910390f35b3480156105d7575f80fd5b506105f260048036038101906105ed91906152f1565b611247565b6040516105ff9190614d08565b60405180910390f35b348015610613575f80fd5b5061061c6112c7565b6040516106299190614de6565b60405180910390f35b34801561063d575f80fd5b5061065860048036038101906106539190614d4b565b611384565b6040516106679392919061549b565b60405180910390f35b34801561067b575f80fd5b506106846113b7565b6040516106919190614de6565b60405180910390f35b3480156106a5575f80fd5b506106c060048036038101906106bb9190615506565b6113f4565b6040516106cd9190614d08565b60405180910390f35b3480156106e1575f80fd5b506106fc60048036038101906106f7919061559d565b611423565b6040516107099190614d08565b60405180910390f35b34801561071d575f80fd5b506107386004803603810190610733919061567f565b611513565b6040516107459190614d08565b60405180910390f35b348015610759575f80fd5b50610774600480360381019061076f9190614d4b565b61157b565b6040516107819190614d08565b60405180910390f35b348015610795575f80fd5b506107b060048036038101906107ab919061575a565b61158e565b005b3480156107bd575f80fd5b506107d860048036038101906107d39190615785565b6115a2565b6040516107e59190614d08565b60405180910390f35b3480156107f9575f80fd5b50610814600480360381019061080f9190615894565b611608565b6040516108219190614d08565b60405180910390f35b348015610835575f80fd5b50610850600480360381019061084b9190615968565b6116fe565b60405161085d9190614d08565b60405180910390f35b348015610871575f80fd5b5061087a611744565b60405161088d9796959493929190615a84565b60405180910390f35b3480156108a1575f80fd5b506108bc60048036038101906108b79190615b06565b6117e9565b6040516108c99190614d08565b60405180910390f35b3480156108dd575f80fd5b506108e661185b565b6040516108f39190615b95565b60405180910390f35b348015610907575f80fd5b506109106118e6565b60405161091d9190614d08565b60405180910390f35b348015610931575f80fd5b5061094c60048036038101906109479190615bae565b6118ee565b6040516109599190614d08565b60405180910390f35b34801561096d575f80fd5b50610976611903565b6040516109839190614d08565b60405180910390f35b348015610997575f80fd5b506109b260048036038101906109ad9190615c66565b61192f565b005b3480156109bf575f80fd5b506109da60048036038101906109d591906152f1565b611943565b6040516109e79190614d08565b60405180910390f35b3480156109fb575f80fd5b50610a166004803603810190610a119190614d4b565b61195a565b604051610a239190614cd7565b60405180910390f35b348015610a37575f80fd5b50610a526004803603810190610a4d9190614d4b565b61196b565b604051610a5f9190614d08565b60405180910390f35b348015610a73575f80fd5b50610a7c6119a1565b604051610a899190614d08565b60405180910390f35b348015610a9d575f80fd5b50610ab86004803603810190610ab39190615c91565b6119af565b604051610ac59190615043565b60405180910390f35b348015610ad9575f80fd5b50610af46004803603810190610aef9190614d4b565b611a2f565b604051610b019190614d08565b60405180910390f35b610b246004803603810190610b1f9190615db1565b611a99565b005b348015610b31575f80fd5b50610b4c6004803603810190610b4791906152f1565b611b22565b604051610b599190614d08565b60405180910390f35b348015610b6d575f80fd5b50610b76611b5c565b604051610b839190614e45565b60405180910390f35b348015610b97575f80fd5b50610ba0611b84565b604051610bad9190614de6565b60405180910390f35b348015610bc1575f80fd5b50610bca611bc1565b604051610bd791906153b8565b60405180910390f35b348015610beb575f80fd5b50610c066004803603810190610c019190615e5b565b611be5565b005b348015610c13575f80fd5b50610c2e6004803603810190610c299190615e86565b611bf9565b604051610c3b9190614d08565b60405180910390f35b348015610c4f575f80fd5b50610c6a6004803603810190610c659190614d4b565b611c14565b005b348015610c77575f80fd5b50610c926004803603810190610c8d9190615ec4565b611c28565b604051610c9f9190615043565b60405180910390f35b348015610cb3575f80fd5b50610cce6004803603810190610cc99190614d4b565b611ca8565b604051610cdb9190614d08565b60405180910390f35b348015610cef575f80fd5b50610cf8611d48565b604051610d059190615fb2565b60405180910390f35b5f610d17611d6f565b905090565b5f610d2682611d97565b9050919050565b5f610d36611ee9565b905090565b610d43611f08565b610d4c81611ffd565b50565b606060038054610d5e90615ff8565b80601f0160208091040260200160405190810160405280929190818152602001828054610d8a90615ff8565b8015610dd55780601f10610dac57610100808354040283529160200191610dd5565b820191905f5260205f20905b815481529060010190602001808311610db857829003601f168201915b5050505050905090565b5f60045f8381526020019081526020015f205f015f9054906101000a900473ffffffffffffffffffffffffffffffffffffffff169050919050565b5f3073ffffffffffffffffffffffffffffffffffffffff16610e3a610d0e565b73ffffffffffffffffffffffffffffffffffffffff1614610e87576040517fe90a651e00000000000000000000000000000000000000000000000000000000815260040160405180910390fd5b63150b7a0260e01b9050949350505050565b5f80610ea786868686611943565b9050610ebc81610eb760046120bf565b6120e3565b505f610ecb828888888861214e565b90505f8165ffffffffffff1614610f50578060045f8481526020019081526020015f206001015f6101000a81548165ffffffffffff021916908365ffffffffffff1602179055507f9a2e42fd6722813d69113e7d0079d3d940171428df7373df9c7f7617cfda28928282604051610f43929190616058565b60405180910390a1610f82565b6040517f90884a4600000000000000000000000000000000000000000000000000000000815260040160405180910390fd5b8192505050949350505050565b5f80610f9d86868686611943565b9050610fbd81610fad60056120bf565b610fb760046120bf565b176120e3565b50600160045f8381526020019081526020015f205f01601e6101000a81548160ff0219169083151502179055503073ffffffffffffffffffffffffffffffffffffffff16611009610d0e565b73ffffffffffffffffffffffffffffffffffffffff16146110bf575f5b86518110156110bd573073ffffffffffffffffffffffffffffffffffffffff168782815181106110595761105861607f565b5b602002602001015173ffffffffffffffffffffffffffffffffffffffff16036110b2576110b18582815181106110925761109161607f565b5b602002602001015180519060200120600561216790919063ffffffff16565b5b806001019050611026565b505b6110cc818787878761225f565b3073ffffffffffffffffffffffffffffffffffffffff166110eb610d0e565b73ffffffffffffffffffffffffffffffffffffffff161415801561111657506111146005612273565b155b156111265761112560056122df565b5b7f712ae1383f79ac853f8d882153778e0260ef8f03b504e2866e0593e04d2b291f816040516111559190614d08565b60405180910390a180915050949350505050565b5f60045f8381526020019081526020015f205f0160149054906101000a900465ffffffffffff1665ffffffffffff169050919050565b7f3e83946653575f9a39005e1545185629e92736b7528ab20ca3816f315424a81181565b5f6111cc612355565b905090565b5f6111db82612377565b9050919050565b5f60095f8481526020019081526020015f206003015f8373ffffffffffffffffffffffffffffffffffffffff1673ffffffffffffffffffffffffffffffffffffffff1681526020019081526020015f205f9054906101000a900460ff16905092915050565b5f8061125586868686611943565b90505f61126061252c565b905061126c8282612533565b6112af5781816040517f8fe5d8a90000000000000000000000000000000000000000000000000000000081526004016112a69291906160ac565b60405180910390fd5b6112bb878787876125aa565b92505050949350505050565b60606112d1611d48565b73ffffffffffffffffffffffffffffffffffffffff16634bf5d7e96040518163ffffffff1660e01b81526004015f60405180830381865afa92505050801561133b57506040513d5f823e3d601f19601f820116820180604052508101906113389190616141565b60015b61137c576040518060400160405280601d81526020017f6d6f64653d626c6f636b6e756d6265722666726f6d3d64656661756c740000008152509050611381565b809150505b90565b5f805f8060095f8681526020019081526020015f209050805f015481600101548260020154935093509350509193909250565b60606040518060400160405280600181526020017f3100000000000000000000000000000000000000000000000000000000000000815250905090565b5f806113fe61252c565b905061141a84828560405180602001604052805f8152506125c1565b91505092915050565b5f61147588888888888080601f0160208091040260200160405190810160405280939291908181526020018383808284375f81840152601f19601f8201169050808301925050505050505087876125e0565b6114b657856040517f94ab6c070000000000000000000000000000000000000000000000000000000081526004016114ad9190614e45565b60405180910390fd5b61150688878988888080601f0160208091040260200160405190810160405280939291908181526020018383808284375f81840152601f19601f8201169050808301925050505050505087612668565b9050979650505050505050565b5f8061151d61252c565b905061156f87828888888080601f0160208091040260200160405190810160405280939291908181526020018383808284375f81840152601f19601f8201169050808301925050505050505087612668565b91505095945050505050565b5f611587600a83612772565b9050919050565b611596611f08565b61159f816127db565b50565b5f806115ac61252c565b90506115fd86828787878080601f0160208091040260200160405190810160405280939291908181526020018383808284375f81840152601f19601f820116905080830192505050505050506125c1565b915050949350505050565b5f8061161261252c565b905061161e818461284e565b61165f57806040517fd9b395570000000000000000000000000000000000000000000000000000000081526004016116569190614e45565b60405180910390fd5b5f6116686119a1565b90505f8111156116e5575f61169883600161168161185b565b61168b91906161b5565b65ffffffffffff16611bf9565b9050818110156116e3578281836040517fc242ee160000000000000000000000000000000000000000000000000000000081526004016116da939291906161ee565b60405180910390fd5b505b6116f28787878786612934565b92505050949350505050565b5f60025f8373ffffffffffffffffffffffffffffffffffffffff1673ffffffffffffffffffffffffffffffffffffffff1681526020019081526020015f20549050919050565b5f6060805f805f6060611755612bb9565b61175d612bf3565b46305f801b5f67ffffffffffffffff81111561177c5761177b614e90565b5b6040519080825280602002602001820160405280156117aa5781602001602082028036833780820191505090505b507f0f00000000000000000000000000000000000000000000000000000000000000959493929190965096509650965096509650965090919293949596565b5f6117f685858585612c2e565b61183757826040517f94ab6c0700000000000000000000000000000000000000000000000000000000815260040161182e9190614e45565b60405180910390fd5b61185185848660405180602001604052805f8152506125c1565b9050949350505050565b5f611864611d48565b73ffffffffffffffffffffffffffffffffffffffff166391ddadf46040518163ffffffff1660e01b8152600401602060405180830381865afa9250505080156118cb57506040513d601f19601f820116820180604052508101906118c89190616237565b60015b6118de576118d7612ca2565b90506118e3565b809150505b90565b5f6064905090565b5f6118fa848484612cb1565b90509392505050565b5f61190e600a612d3c565b79ffffffffffffffffffffffffffffffffffffffffffffffffffff16905090565b611937611f08565b61194081612d9e565b50565b5f61195085858585611b22565b9050949350505050565b5f61196482612e3b565b9050919050565b5f60045f8381526020019081526020015f206001015f9054906101000a900465ffffffffffff1665ffffffffffff169050919050565b5f6119aa612e45565b905090565b5f3073ffffffffffffffffffffffffffffffffffffffff166119cf610d0e565b73ffffffffffffffffffffffffffffffffffffffff1614611a1c576040517fe90a651e00000000000000000000000000000000000000000000000000000000815260040160405180910390fd5b63bc197c8160e01b905095945050505050565b5f60045f8381526020019081526020015f205f01601a9054906101000a900463ffffffff1663ffffffff1660045f8481526020019081526020015f205f0160149054906101000a900465ffffffffffff16611a8a9190616262565b65ffffffffffff169050919050565b611aa1611f08565b5f808573ffffffffffffffffffffffffffffffffffffffff16858585604051611acb9291906162c9565b5f6040518083038185875af1925050503d805f8114611b05576040519150601f19603f3d011682016040523d82523d5f602084013e611b0a565b606091505b5091509150611b198282612e4e565b50505050505050565b5f84848484604051602001611b3a94939291906164a5565b604051602081830303815290604052805190602001205f1c9050949350505050565b5f600b5f9054906101000a900473ffffffffffffffffffffffffffffffffffffffff16905090565b60606040518060400160405280602081526020017f737570706f72743d627261766f2671756f72756d3d666f722c6162737461696e815250905090565b7ff2aad550cf55f045cb27e9c559f9889fdfb6e6cdaa032301d6ea397784ae51d781565b611bed611f08565b611bf681612e72565b50565b5f611c0c8383611c07612f2b565b612cb1565b905092915050565b611c1c611f08565b611c2581612f41565b50565b5f3073ffffffffffffffffffffffffffffffffffffffff16611c48610d0e565b73ffffffffffffffffffffffffffffffffffffffff1614611c95576040517fe90a651e00000000000000000000000000000000000000000000000000000000815260040160405180910390fd5b63f23a6e6160e01b905095945050505050565b5f611d41611cb4611d48565b73ffffffffffffffffffffffffffffffffffffffff16638e539e8c846040518263ffffffff1660e01b8152600401611cec9190614d08565b602060405180830381865afa158015611d07573d5f803e3d5ffd5b505050506040513d601f19601f82011682018060405250810190611d2b9190616511565b611d348461157b565b611d3c6118e6565b612f86565b9050919050565b5f7f0000000000000000000000000000000000000000000000000000000000000000905090565b5f600b5f9054906101000a900473ffffffffffffffffffffffffffffffffffffffff16905090565b5f7fcdbdfcee000000000000000000000000000000000000000000000000000000007bffffffffffffffffffffffffffffffffffffffffffffffffffffffff1916827bffffffffffffffffffffffffffffffffffffffffffffffffffffffff19161480611e6a575063a8f8a66860e01b7fcdbdfcee00000000000000000000000000000000000000000000000000000000187bffffffffffffffffffffffffffffffffffffffffffffffffffffffff1916827bffffffffffffffffffffffffffffffffffffffffffffffffffffffff1916145b80611ed257507f4e2312e0000000000000000000000000000000000000000000000000000000007bffffffffffffffffffffffffffffffffffffffffffffffffffffffff1916827bffffffffffffffffffffffffffffffffffffffffffffffffffffffff1916145b80611ee25750611ee182613065565b5b9050919050565b5f600860069054906101000a900463ffffffff1663ffffffff16905090565b611f1061252c565b73ffffffffffffffffffffffffffffffffffffffff16611f2e610d0e565b73ffffffffffffffffffffffffffffffffffffffff1614611f8d57611f5161252c565b6040517f47096e47000000000000000000000000000000000000000000000000000000008152600401611f849190614e45565b60405180910390fd5b3073ffffffffffffffffffffffffffffffffffffffff16611fac610d0e565b73ffffffffffffffffffffffffffffffffffffffff1614611ffb575f611fd06130ce565b604051611fde9291906162c9565b604051809103902090505b80611ff460056130da565b03611fe957505b565b5f6120066118e6565b90508082111561204f5781816040517f243e544500000000000000000000000000000000000000000000000000000000815260040161204692919061653c565b60405180910390fd5b5f612058611903565b905061207f61206561185b565b61206e85613208565b600a6132759092919063ffffffff16565b50507f0553476bf02ef2726e8ce5ced78d63e26e602e4a2257b1f559418e24b463399781846040516120b292919061653c565b60405180910390a1505050565b5f8160078111156120d3576120d26153d1565b5b60ff166001901b5f1b9050919050565b5f806120ee846111d1565b90505f801b836120fd836120bf565b1603612144578381846040517f31b75e4d00000000000000000000000000000000000000000000000000000000815260040161213b93929190616563565b60405180910390fd5b8091505092915050565b5f61215c8686868686613290565b905095945050505050565b5f825f0160109054906101000a90046fffffffffffffffffffffffffffffffff169050825f015f9054906101000a90046fffffffffffffffffffffffffffffffff166fffffffffffffffffffffffffffffffff16600182016fffffffffffffffffffffffffffffffff16036121e1576121e06041613496565b5b81836001015f836fffffffffffffffffffffffffffffffff166fffffffffffffffffffffffffffffffff1681526020019081526020015f208190555060018101835f0160106101000a8154816fffffffffffffffffffffffffffffffff02191690836fffffffffffffffffffffffffffffffff160217905550505050565b61226c85858585856134a7565b5050505050565b5f815f015f9054906101000a90046fffffffffffffffffffffffffffffffff166fffffffffffffffffffffffffffffffff16825f0160109054906101000a90046fffffffffffffffffffffffffffffffff166fffffffffffffffffffffffffffffffff16149050919050565b5f815f015f6101000a8154816fffffffffffffffffffffffffffffffff02191690836fffffffffffffffffffffffffffffffff1602179055505f815f0160106101000a8154816fffffffffffffffffffffffffffffffff02191690836fffffffffffffffffffffffffffffffff16021790555050565b5f60085f9054906101000a900465ffffffffffff1665ffffffffffff16905090565b5f806123828361355b565b905060056007811115612398576123976153d1565b5b8160078111156123ab576123aa6153d1565b5b146123b95780915050612527565b5f600c5f8581526020019081526020015f20549050600b5f9054906101000a900473ffffffffffffffffffffffffffffffffffffffff1673ffffffffffffffffffffffffffffffffffffffff1663584b153e826040518263ffffffff1660e01b815260040161242891906153b8565b602060405180830381865afa158015612443573d5f803e3d5ffd5b505050506040513d601f19601f8201168201806040525081019061246791906165c2565b1561247757600592505050612527565b600b5f9054906101000a900473ffffffffffffffffffffffffffffffffffffffff1673ffffffffffffffffffffffffffffffffffffffff16632ab0f529826040518263ffffffff1660e01b81526004016124d191906153b8565b602060405180830381865afa1580156124ec573d5f803e3d5ffd5b505050506040513d601f19601f8201168201806040525081019061251091906165c2565b1561252057600792505050612527565b6002925050505b919050565b5f33905090565b5f806007811115612547576125466153d1565b5b612550846111d1565b6007811115612562576125616153d1565b5b1480156125a2575061257383610ddf565b73ffffffffffffffffffffffffffffffffffffffff168273ffffffffffffffffffffffffffffffffffffffff16145b905092915050565b5f6125b7858585856136b2565b9050949350505050565b5f6125d6858585856125d1612f2b565b612668565b9050949350505050565b5f61265c856126567f3e83946653575f9a39005e1545185629e92736b7528ab20ca3816f315424a8118a8a8a6126158c613789565b8b805190602001208b8051906020012060405160200161263b97969594939291906165fc565b604051602081830303815290604052805190602001206137dc565b846137f5565b90509695505050505050565b5f61267c8661267760016120bf565b6120e3565b505f6126918661268b89611169565b85612cb1565b90505f6126a188888885886138a1565b90505f845103612704578673ffffffffffffffffffffffffffffffffffffffff167fb8e138887d0aa13bab447e82de9d5c1777041ecd21ca36ba824ff1e6c07ddda4898884896040516126f79493929190616669565b60405180910390a261275b565b8673ffffffffffffffffffffffffffffffffffffffff167fe2babfbac5889a709b63bb7f598b324e08bc5a4fb9ec647fb3cbc9ec07eb871289888489896040516127529594939291906166fb565b60405180910390a25b61276488613a96565b809250505095945050505050565b5f805f61277e85613a99565b9250925050838265ffffffffffff1611156127b3576127ae61279f85613b28565b86613b8190919063ffffffff16565b6127b5565b805b79ffffffffffffffffffffffffffffffffffffffffffffffffffff169250505092915050565b7fc565b045403dc03c2eea82b81a0465edad9e2e7fc4d97e11421c209da93d7a9360085f9054906101000a900465ffffffffffff168260405161281f92919061675a565b60405180910390a18060085f6101000a81548165ffffffffffff021916908365ffffffffffff16021790555050565b5f8082519050603481101561286757600191505061292e565b5f6128758460348403613c6e565b90507f2370726f706f7365723d0000000000000000000000000000000000000000000075ffffffffffffffffffffffffffffffffffffffffffff19168175ffffffffffffffffffffffffffffffffffffffffffff1916146128db5760019250505061292e565b5f806128eb86602a860386613c7e565b9150915081158061292757508673ffffffffffffffffffffffffffffffffffffffff168173ffffffffffffffffffffffffffffffffffffffff16145b9450505050505b92915050565b5f6129488686868680519060200120611943565b90508451865114158061295d57508351865114155b8061296857505f8651145b156129b1578551845186516040517f447b05d00000000000000000000000000000000000000000000000000000000081526004016129a89392919061549b565b60405180910390fd5b5f60045f8381526020019081526020015f205f0160149054906101000a900465ffffffffffff1665ffffffffffff1614612a3057806129ef826111d1565b5f801b6040517f31b75e4d000000000000000000000000000000000000000000000000000000008152600401612a2793929190616563565b60405180910390fd5b5f612a396111c3565b612a4161185b565b65ffffffffffff16612a539190616781565b90505f612a5e610d2d565b90505f60045f8581526020019081526020015f20905084815f015f6101000a81548173ffffffffffffffffffffffffffffffffffffffff021916908373ffffffffffffffffffffffffffffffffffffffff160217905550612abe83613b28565b815f0160146101000a81548165ffffffffffff021916908365ffffffffffff160217905550612aec82613d8f565b815f01601a6101000a81548163ffffffff021916908363ffffffff1602179055507f7d84a6263ae0d98d3329bd7b46bb4e8d6f98cd35a7adb45c274c8b7fd5ebd5e084868b8b8d5167ffffffffffffffff811115612b4d57612b4c614e90565b5b604051908082528060200260200182016040528015612b8057816020015b6060815260200190600190039081612b6b5790505b508c89898b612b8f9190616781565b8e604051612ba5999897969594939291906168b7565b60405180910390a150505095945050505050565b6060612bee5f7f0000000000000000000000000000000000000000000000000000000000000000613de690919063ffffffff16565b905090565b6060612c2960017f0000000000000000000000000000000000000000000000000000000000000000613de690919063ffffffff16565b905090565b5f612c9883612c927ff2aad550cf55f045cb27e9c559f9889fdfb6e6cdaa032301d6ea397784ae51d7888888612c638a613789565b604051602001612c77959493929190616965565b604051602081830303815290604052805190602001206137dc565b846137f5565b9050949350505050565b5f612cac43613b28565b905090565b5f612cba611d48565b73ffffffffffffffffffffffffffffffffffffffff16633a46b1a885856040518363ffffffff1660e01b8152600401612cf49291906169b6565b602060405180830381865afa158015612d0f573d5f803e3d5ffd5b505050506040513d601f19601f82011682018060405250810190612d339190616511565b90509392505050565b5f80825f018054905090505f8114612d9457612d66835f01600183612d6191906169dd565b613e93565b5f0160069054906101000a900479ffffffffffffffffffffffffffffffffffffffffffffffffffff16612d96565b5f5b915050919050565b7f08f74ea46ef7894f65eabfb5e6e695de773a000b47c529ab559178069b226401600b5f9054906101000a900473ffffffffffffffffffffffffffffffffffffffff1682604051612df0929190616a10565b60405180910390a180600b5f6101000a81548173ffffffffffffffffffffffffffffffffffffffff021916908373ffffffffffffffffffffffffffffffffffffffff16021790555050565b5f60019050919050565b5f600754905090565b606082612e6357612e5e82613ea5565b612e6b565b819050612e6c565b5b92915050565b5f8163ffffffff1603612ebc575f6040517ff1cfbf05000000000000000000000000000000000000000000000000000000008152600401612eb39190616a70565b60405180910390fd5b7f7e3f7f0708a84de9203036abaa450dccc85ad5ff52f78c170f3edb55cf5e8828600860069054906101000a900463ffffffff1682604051612eff929190616ab9565b60405180910390a180600860066101000a81548163ffffffff021916908363ffffffff16021790555050565b606060405180602001604052805f815250905090565b7fccb45da8d5717e6c4544694297c4ba5cf151d455c9bb0ed4fc7a38411bc0546160075482604051612f7492919061653c565b60405180910390a18060078190555050565b5f805f612f938686613ee8565b915091505f8203612fb857838181612fae57612fad616ae0565b5b049250505061305e565b818411612fd757612fd6612fd15f861460126011613f05565b613496565b5b5f8486880990508181118303925080820391505f855f038616905080860495508083049250600181825f0304019050808402831792505f600287600302189050808702600203810290508087026002038102905080870260020381029050808702600203810290508087026002038102905080870260020381029050808402955050505050505b9392505050565b5f7f01ffc9a7000000000000000000000000000000000000000000000000000000007bffffffffffffffffffffffffffffffffffffffffffffffffffffffff1916827bffffffffffffffffffffffffffffffffffffffffffffffffffffffff1916149050919050565b365f8036915091509091565b5f80825f015f9054906101000a90046fffffffffffffffffffffffffffffffff169050825f0160109054906101000a90046fffffffffffffffffffffffffffffffff166fffffffffffffffffffffffffffffffff16816fffffffffffffffffffffffffffffffff1603613152576131516031613496565b5b826001015f826fffffffffffffffffffffffffffffffff166fffffffffffffffffffffffffffffffff1681526020019081526020015f20549150826001015f826fffffffffffffffffffffffffffffffff166fffffffffffffffffffffffffffffffff1681526020019081526020015f205f905560018101835f015f6101000a8154816fffffffffffffffffffffffffffffffff02191690836fffffffffffffffffffffffffffffffff16021790555050919050565b5f79ffffffffffffffffffffffffffffffffffffffffffffffffffff801682111561326d5760d0826040517f6dfcc650000000000000000000000000000000000000000000000000000000008152600401613264929190616b46565b60405180910390fd5b819050919050565b5f80613284855f018585613f1e565b91509150935093915050565b5f80600b5f9054906101000a900473ffffffffffffffffffffffffffffffffffffffff1673ffffffffffffffffffffffffffffffffffffffff1663f27a0c926040518163ffffffff1660e01b8152600401602060405180830381865afa1580156132fc573d5f803e3d5ffd5b505050506040513d601f19601f820116820180604052508101906133209190616511565b90505f61332c84614212565b9050600b5f9054906101000a900473ffffffffffffffffffffffffffffffffffffffff1673ffffffffffffffffffffffffffffffffffffffff1663b1c5f4278888885f866040518663ffffffff1660e01b8152600401613390959493929190616ba8565b602060405180830381865afa1580156133ab573d5f803e3d5ffd5b505050506040513d601f19601f820116820180604052508101906133cf9190616c22565b600c5f8a81526020019081526020015f2081905550600b5f9054906101000a900473ffffffffffffffffffffffffffffffffffffffff1673ffffffffffffffffffffffffffffffffffffffff16638f2a0bb08888885f86886040518763ffffffff1660e01b815260040161344896959493929190616c4d565b5f604051808303815f87803b15801561345f575f80fd5b505af1158015613471573d5f803e3d5ffd5b5050505061348982426134849190616781565b613b28565b9250505095945050505050565b634e487b715f52806020526024601cfd5b600b5f9054906101000a900473ffffffffffffffffffffffffffffffffffffffff1673ffffffffffffffffffffffffffffffffffffffff1663e38335e5348686865f6134f288614212565b6040518763ffffffff1660e01b8152600401613512959493929190616ba8565b5f604051808303818588803b158015613529575f80fd5b505af115801561353b573d5f803e3d5ffd5b5050505050600c5f8681526020019081526020015f205f90555050505050565b5f8060045f8481526020019081526020015f2090505f815f01601e9054906101000a900460ff1690505f825f01601f9054906101000a900460ff16905081156135aa57600793505050506136ad565b80156135bc57600293505050506136ad565b5f6135c686611169565b90505f810361360c57856040517f6ad060750000000000000000000000000000000000000000000000000000000081526004016136039190614d08565b60405180910390fd5b5f61361561185b565b65ffffffffffff169050808210613633575f955050505050506136ad565b5f61363d88611a2f565b905081811061365557600196505050505050506136ad565b61365e8861422f565b1580613670575061366e88614273565b155b1561368457600396505050505050506136ad565b5f61368e8961196b565b036136a257600496505050505050506136ad565b600596505050505050505b919050565b5f806136c08686868661429a565b90505f600c5f8381526020019081526020015f205490505f801b811461377c57600b5f9054906101000a900473ffffffffffffffffffffffffffffffffffffffff1673ffffffffffffffffffffffffffffffffffffffff1663c4d252f5826040518263ffffffff1660e01b815260040161373a91906153b8565b5f604051808303815f87803b158015613751575f80fd5b505af1158015613763573d5f803e3d5ffd5b50505050600c5f8381526020019081526020015f205f90555b8192505050949350505050565b5f60025f8373ffffffffffffffffffffffffffffffffffffffff1673ffffffffffffffffffffffffffffffffffffffff1681526020019081526020015f205f815480929190600101919050559050919050565b5f6137ee6137e861437c565b83614432565b9050919050565b5f808473ffffffffffffffffffffffffffffffffffffffff163b0361388c575f806138208585614472565b50915091505f6003811115613838576138376153d1565b5b81600381111561384b5761384a6153d1565b5b14801561388357508573ffffffffffffffffffffffffffffffffffffffff168273ffffffffffffffffffffffffffffffffffffffff16145b9250505061389a565b6138978484846144c7565b90505b9392505050565b5f8060095f8881526020019081526020015f209050806003015f8773ffffffffffffffffffffffffffffffffffffffff1673ffffffffffffffffffffffffffffffffffffffff1681526020019081526020015f205f9054906101000a900460ff161561394457856040517f71c6af4900000000000000000000000000000000000000000000000000000000815260040161393b9190614e45565b60405180910390fd5b6001816003015f8873ffffffffffffffffffffffffffffffffffffffff1673ffffffffffffffffffffffffffffffffffffffff1681526020019081526020015f205f6101000a81548160ff0219169083151502179055505f60028111156139ae576139ad6153d1565b5b60ff168560ff16036139d85783815f015f8282546139cc9190616781565b92505081905550613a89565b600160028111156139ec576139eb6153d1565b5b60ff168560ff1603613a175783816001015f828254613a0b9190616781565b92505081905550613a88565b600280811115613a2a57613a296153d1565b5b60ff168560ff1603613a555783816002015f828254613a499190616781565b92505081905550613a87565b6040517f06b337c200000000000000000000000000000000000000000000000000000000815260040160405180910390fd5b5b5b8391505095945050505050565b50565b5f805f80845f018054905090505f8103613abc575f805f93509350935050613b21565b5f613ad5865f01600184613ad091906169dd565b613e93565b90506001815f015f9054906101000a900465ffffffffffff16825f0160069054906101000a900479ffffffffffffffffffffffffffffffffffffffffffffffffffff1694509450945050505b9193909250565b5f65ffffffffffff8016821115613b79576030826040517f6dfcc650000000000000000000000000000000000000000000000000000000008152600401613b70929190616cfa565b60405180910390fd5b819050919050565b5f80835f018054905090505f808290506005831115613c02575f613ba4846145e6565b84613baf91906169dd565b9050613bbd875f0182613e93565b5f015f9054906101000a900465ffffffffffff1665ffffffffffff168665ffffffffffff161015613bf057809150613c00565b600181613bfd9190616781565b92505b505b5f613c11875f01878585614780565b90505f8114613c6057613c32875f01600183613c2d91906169dd565b613e93565b5f0160069054906101000a900479ffffffffffffffffffffffffffffffffffffffffffffffffffff16613c62565b5f5b94505050505092915050565b5f81602084010151905092915050565b5f808451831180613c8e57508284115b15613c9e575f8091509150613d87565b5f600185613cac9190616781565b84118015613d2457507f30780000000000000000000000000000000000000000000000000000000000007dffffffffffffffffffffffffffffffffffffffffffffffffffffffffffff1916613d0187876147f5565b7dffffffffffffffffffffffffffffffffffffffffffffffffffffffffffff1916145b90505f6002613d34831515614805565b613d3e9190616d21565b6028613d4a9190616781565b9050808686613d5991906169dd565b03613d7e575f80613d6b898989614810565b9150915081819550955050505050613d87565b5f809350935050505b935093915050565b5f63ffffffff8016821115613dde576020826040517f6dfcc650000000000000000000000000000000000000000000000000000000008152600401613dd5929190616d9b565b60405180910390fd5b819050919050565b606060ff5f1b8314613e0257613dfb8361493b565b9050613e8d565b818054613e0e90615ff8565b80601f0160208091040260200160405190810160405280929190818152602001828054613e3a90615ff8565b8015613e855780601f10613e5c57610100808354040283529160200191613e85565b820191905f5260205f20905b815481529060010190602001808311613e6857829003601f168201915b505050505090505b92915050565b5f825f528160205f2001905092915050565b5f81511115613eb657805160208201fd5b6040517fd6bda27500000000000000000000000000000000000000000000000000000000815260040160405180910390fd5b5f805f198385098385029150818110828203039250509250929050565b5f613f0f84614805565b82841802821890509392505050565b5f805f858054905090505f81111561412a575f613f4787600184613f4291906169dd565b613e93565b90505f815f015f9054906101000a900465ffffffffffff1690505f825f0160069054906101000a900479ffffffffffffffffffffffffffffffffffffffffffffffffffff1690508765ffffffffffff168265ffffffffffff161115613fd8576040517f2520601d00000000000000000000000000000000000000000000000000000000815260040160405180910390fd5b8765ffffffffffff168265ffffffffffff16036140425786835f0160066101000a81548179ffffffffffffffffffffffffffffffffffffffffffffffffffff021916908379ffffffffffffffffffffffffffffffffffffffffffffffffffff16021790555061411b565b8860405180604001604052808a65ffffffffffff1681526020018979ffffffffffffffffffffffffffffffffffffffffffffffffffff16815250908060018154018082558091505060019003905f5260205f20015f909190919091505f820151815f015f6101000a81548165ffffffffffff021916908365ffffffffffff1602179055506020820151815f0160066101000a81548179ffffffffffffffffffffffffffffffffffffffffffffffffffff021916908379ffffffffffffffffffffffffffffffffffffffffffffffffffff16021790555050505b8087955095505050505061420a565b8560405180604001604052808765ffffffffffff1681526020018679ffffffffffffffffffffffffffffffffffffffffffffffffffff16815250908060018154018082558091505060019003905f5260205f20015f909190919091505f820151815f015f6101000a81548165ffffffffffff021916908365ffffffffffff1602179055506020820151815f0160066101000a81548179ffffffffffffffffffffffffffffffffffffffffffffffffffff021916908379ffffffffffffffffffffffffffffffffffffffffffffffffffff16021790555050505f8492509250505b935093915050565b5f813060601b6bffffffffffffffffffffffff1916189050919050565b5f8060095f8481526020019081526020015f209050806002015481600101546142589190616781565b61426961426485611169565b611ca8565b1115915050919050565b5f8060095f8481526020019081526020015f209050805f0154816001015411915050919050565b5f806142a886868686611943565b905061430c816142b860076120bf565b6142c260066120bf565b6142cc60026120bf565b6001806007808111156142e2576142e16153d1565b5b6142ec9190616dc2565b60026142f89190616f25565b61430291906169dd565b5f1b1818186120e3565b50600160045f8381526020019081526020015f205f01601f6101000a81548160ff0219169083151502179055507f789cf55be980739dad1d0699b93b58e806b51c9d96619bfa8fe0a28abaa7b30c816040516143689190614d08565b60405180910390a180915050949350505050565b5f7f000000000000000000000000000000000000000000000000000000000000000073ffffffffffffffffffffffffffffffffffffffff163073ffffffffffffffffffffffffffffffffffffffff161480156143f757507f000000000000000000000000000000000000000000000000000000000000000046145b15614424577f0000000000000000000000000000000000000000000000000000000000000000905061442f565b61442c6149ad565b90505b90565b5f6040517f190100000000000000000000000000000000000000000000000000000000000081528360028201528260228201526042812091505092915050565b5f805f60418451036144b2575f805f602087015192506040870151915060608701515f1a90506144a488828585614a42565b9550955095505050506144c0565b5f600285515f1b9250925092505b9250925092565b5f805f8573ffffffffffffffffffffffffffffffffffffffff1685856040516024016144f4929190616f6f565b604051602081830303815290604052631626ba7e60e01b6020820180517bffffffffffffffffffffffffffffffffffffffffffffffffffffffff83818316178352505050506040516145469190616fcd565b5f60405180830381855afa9150503d805f811461457e576040519150601f19603f3d011682016040523d82523d5f602084013e614583565b606091505b509150915081801561459757506020815110155b80156145db5750631626ba7e60e01b7bffffffffffffffffffffffffffffffffffffffffffffffffffffffff1916818060200190518101906145d99190616c22565b145b925050509392505050565b5f600182116145f75781905061477b565b5f8290505f60019050700100000000000000000000000000000000821061462757608082901c9150604081901b90505b68010000000000000000821061464657604082901c9150602081901b90505b640100000000821061466157602082901c9150601081901b90505b62010000821061467a57601082901c9150600881901b90505b610100821061469257600882901c9150600481901b90505b601082106146a957600482901c9150600281901b90505b600482106146b957600181901b90505b600181600302901c905060018185816146d5576146d4616ae0565b5b048201901c905060018185816146ee576146ed616ae0565b5b048201901c9050600181858161470757614706616ae0565b5b048201901c905060018185816147205761471f616ae0565b5b048201901c9050600181858161473957614738616ae0565b5b048201901c9050600181858161475257614751616ae0565b5b048201901c905061477481858161476c5761476b616ae0565b5b048211614805565b8103925050505b919050565b5f5b818310156147ea575f6147958484614b29565b90508465ffffffffffff166147aa8783613e93565b5f015f9054906101000a900465ffffffffffff1665ffffffffffff1611156147d4578092506147e4565b6001816147e19190616781565b93505b50614782565b819050949350505050565b5f81602084010151905092915050565b5f8115159050919050565b5f805f8590505f6001866148249190616781565b8511801561489c57507f30780000000000000000000000000000000000000000000000000000000000007dffffffffffffffffffffffffffffffffffffffffffffffffffffffffffff191661487983886147f5565b7dffffffffffffffffffffffffffffffffffffffffffffffffffffffffffff1916145b90505f60026148ac831515614805565b6148b69190616d21565b90505f8082896148c69190616781565b90505b87811015614926575f6148e46148df87846147f5565b614b4e565b9050600f8160ff161115614903575f8097509750505050505050614933565b6010836149109190616d21565b92508060ff1683019250508060010190506148c9565b5060018195509550505050505b935093915050565b60605f61494783614bde565b90505f602067ffffffffffffffff81111561496557614964614e90565b5b6040519080825280601f01601f1916602001820160405280156149975781602001600182028036833780820191505090505b5090508181528360208201528092505050919050565b5f7f8b73c3c69bb8fe3d512ecc4cf759cc79239f7b179b0ffacaa9a75d522b39400f7f00000000000000000000000000000000000000000000000000000000000000007f00000000000000000000000000000000000000000000000000000000000000004630604051602001614a27959493929190616fe3565b60405160208183030381529060405280519060200120905090565b5f805f7f7fffffffffffffffffffffffffffffff5d576e7357a4501ddfe92f46681b20a0845f1c1115614a7e575f600385925092509250614b1f565b5f6001888888886040515f8152602001604052604051614aa19493929190617034565b6020604051602081039080840390855afa158015614ac1573d5f803e3d5ffd5b5050506020604051035190505f73ffffffffffffffffffffffffffffffffffffffff168173ffffffffffffffffffffffffffffffffffffffff1603614b12575f60015f801b93509350935050614b1f565b805f805f1b935093509350505b9450945094915050565b5f6002828418614b399190617077565b828416614b469190616781565b905092915050565b5f808260f81c9050602f8160ff16118015614b6c5750603a8160ff16105b15614b7c57603081039050614bd4565b60608160ff16118015614b92575060678160ff16105b15614ba257605781039050614bd3565b60408160ff16118015614bb8575060478160ff16105b15614bc857603781039050614bd2565b60ff915050614bd9565b5b5b809150505b919050565b5f8060ff835f1c169050601f811115614c23576040517fb3512b0c00000000000000000000000000000000000000000000000000000000815260040160405180910390fd5b80915050919050565b5f604051905090565b5f80fd5b5f80fd5b5f7fffffffff0000000000000000000000000000000000000000000000000000000082169050919050565b614c7181614c3d565b8114614c7b575f80fd5b50565b5f81359050614c8c81614c68565b92915050565b5f60208284031215614ca757614ca6614c35565b5b5f614cb484828501614c7e565b91505092915050565b5f8115159050919050565b614cd181614cbd565b82525050565b5f602082019050614cea5f830184614cc8565b92915050565b5f819050919050565b614d0281614cf0565b82525050565b5f602082019050614d1b5f830184614cf9565b92915050565b614d2a81614cf0565b8114614d34575f80fd5b50565b5f81359050614d4581614d21565b92915050565b5f60208284031215614d6057614d5f614c35565b5b5f614d6d84828501614d37565b91505092915050565b5f81519050919050565b5f82825260208201905092915050565b8281835e5f83830152505050565b5f601f19601f8301169050919050565b5f614db882614d76565b614dc28185614d80565b9350614dd2818560208601614d90565b614ddb81614d9e565b840191505092915050565b5f6020820190508181035f830152614dfe8184614dae565b905092915050565b5f73ffffffffffffffffffffffffffffffffffffffff82169050919050565b5f614e2f82614e06565b9050919050565b614e3f81614e25565b82525050565b5f602082019050614e585f830184614e36565b92915050565b614e6781614e25565b8114614e71575f80fd5b50565b5f81359050614e8281614e5e565b92915050565b5f80fd5b5f80fd5b7f4e487b71000000000000000000000000000000000000000000000000000000005f52604160045260245ffd5b614ec682614d9e565b810181811067ffffffffffffffff82111715614ee557614ee4614e90565b5b80604052505050565b5f614ef7614c2c565b9050614f038282614ebd565b919050565b5f67ffffffffffffffff821115614f2257614f21614e90565b5b614f2b82614d9e565b9050602081019050919050565b828183375f83830152505050565b5f614f58614f5384614f08565b614eee565b905082815260208101848484011115614f7457614f73614e8c565b5b614f7f848285614f38565b509392505050565b5f82601f830112614f9b57614f9a614e88565b5b8135614fab848260208601614f46565b91505092915050565b5f805f8060808587031215614fcc57614fcb614c35565b5b5f614fd987828801614e74565b9450506020614fea87828801614e74565b9350506040614ffb87828801614d37565b925050606085013567ffffffffffffffff81111561501c5761501b614c39565b5b61502887828801614f87565b91505092959194509250565b61503d81614c3d565b82525050565b5f6020820190506150565f830184615034565b92915050565b5f67ffffffffffffffff82111561507657615075614e90565b5b602082029050602081019050919050565b5f80fd5b5f61509d6150988461505c565b614eee565b905080838252602082019050602084028301858111156150c0576150bf615087565b5b835b818110156150e957806150d58882614e74565b8452602084019350506020810190506150c2565b5050509392505050565b5f82601f83011261510757615106614e88565b5b813561511784826020860161508b565b91505092915050565b5f67ffffffffffffffff82111561513a57615139614e90565b5b602082029050602081019050919050565b5f61515d61515884615120565b614eee565b905080838252602082019050602084028301858111156151805761517f615087565b5b835b818110156151a957806151958882614d37565b845260208401935050602081019050615182565b5050509392505050565b5f82601f8301126151c7576151c6614e88565b5b81356151d784826020860161514b565b91505092915050565b5f67ffffffffffffffff8211156151fa576151f9614e90565b5b602082029050602081019050919050565b5f61521d615218846151e0565b614eee565b905080838252602082019050602084028301858111156152405761523f615087565b5b835b8181101561528757803567ffffffffffffffff81111561526557615264614e88565b5b8086016152728982614f87565b85526020850194505050602081019050615242565b5050509392505050565b5f82601f8301126152a5576152a4614e88565b5b81356152b584826020860161520b565b91505092915050565b5f819050919050565b6152d0816152be565b81146152da575f80fd5b50565b5f813590506152eb816152c7565b92915050565b5f805f806080858703121561530957615308614c35565b5b5f85013567ffffffffffffffff81111561532657615325614c39565b5b615332878288016150f3565b945050602085013567ffffffffffffffff81111561535357615352614c39565b5b61535f878288016151b3565b935050604085013567ffffffffffffffff8111156153805761537f614c39565b5b61538c87828801615291565b925050606061539d878288016152dd565b91505092959194509250565b6153b2816152be565b82525050565b5f6020820190506153cb5f8301846153a9565b92915050565b7f4e487b71000000000000000000000000000000000000000000000000000000005f52602160045260245ffd5b6008811061540f5761540e6153d1565b5b50565b5f81905061541f826153fe565b919050565b5f61542e82615412565b9050919050565b61543e81615424565b82525050565b5f6020820190506154575f830184615435565b92915050565b5f806040838503121561547357615472614c35565b5b5f61548085828601614d37565b925050602061549185828601614e74565b9150509250929050565b5f6060820190506154ae5f830186614cf9565b6154bb6020830185614cf9565b6154c86040830184614cf9565b949350505050565b5f60ff82169050919050565b6154e5816154d0565b81146154ef575f80fd5b50565b5f81359050615500816154dc565b92915050565b5f806040838503121561551c5761551b614c35565b5b5f61552985828601614d37565b925050602061553a858286016154f2565b9150509250929050565b5f80fd5b5f8083601f84011261555d5761555c614e88565b5b8235905067ffffffffffffffff81111561557a57615579615544565b5b60208301915083600182028301111561559657615595615087565b5b9250929050565b5f805f805f805f60c0888a0312156155b8576155b7614c35565b5b5f6155c58a828b01614d37565b97505060206155d68a828b016154f2565b96505060406155e78a828b01614e74565b955050606088013567ffffffffffffffff81111561560857615607614c39565b5b6156148a828b01615548565b9450945050608088013567ffffffffffffffff81111561563757615636614c39565b5b6156438a828b01614f87565b92505060a088013567ffffffffffffffff81111561566457615663614c39565b5b6156708a828b01614f87565b91505092959891949750929550565b5f805f805f6080868803121561569857615697614c35565b5b5f6156a588828901614d37565b95505060206156b6888289016154f2565b945050604086013567ffffffffffffffff8111156156d7576156d6614c39565b5b6156e388828901615548565b9350935050606086013567ffffffffffffffff81111561570657615705614c39565b5b61571288828901614f87565b9150509295509295909350565b5f65ffffffffffff82169050919050565b6157398161571f565b8114615743575f80fd5b50565b5f8135905061575481615730565b92915050565b5f6020828403121561576f5761576e614c35565b5b5f61577c84828501615746565b91505092915050565b5f805f806060858703121561579d5761579c614c35565b5b5f6157aa87828801614d37565b94505060206157bb878288016154f2565b935050604085013567ffffffffffffffff8111156157dc576157db614c39565b5b6157e887828801615548565b925092505092959194509250565b5f67ffffffffffffffff8211156158105761580f614e90565b5b61581982614d9e565b9050602081019050919050565b5f615838615833846157f6565b614eee565b90508281526020810184848401111561585457615853614e8c565b5b61585f848285614f38565b509392505050565b5f82601f83011261587b5761587a614e88565b5b813561588b848260208601615826565b91505092915050565b5f805f80608085870312156158ac576158ab614c35565b5b5f85013567ffffffffffffffff8111156158c9576158c8614c39565b5b6158d5878288016150f3565b945050602085013567ffffffffffffffff8111156158f6576158f5614c39565b5b615902878288016151b3565b935050604085013567ffffffffffffffff81111561592357615922614c39565b5b61592f87828801615291565b925050606085013567ffffffffffffffff8111156159505761594f614c39565b5b61595c87828801615867565b91505092959194509250565b5f6020828403121561597d5761597c614c35565b5b5f61598a84828501614e74565b91505092915050565b5f7fff0000000000000000000000000000000000000000000000000000000000000082169050919050565b6159c781615993565b82525050565b5f81519050919050565b5f82825260208201905092915050565b5f819050602082019050919050565b6159ff81614cf0565b82525050565b5f615a1083836159f6565b60208301905092915050565b5f602082019050919050565b5f615a32826159cd565b615a3c81856159d7565b9350615a47836159e7565b805f5b83811015615a77578151615a5e8882615a05565b9750615a6983615a1c565b925050600181019050615a4a565b5085935050505092915050565b5f60e082019050615a975f83018a6159be565b8181036020830152615aa98189614dae565b90508181036040830152615abd8188614dae565b9050615acc6060830187614cf9565b615ad96080830186614e36565b615ae660a08301856153a9565b81810360c0830152615af88184615a28565b905098975050505050505050565b5f805f8060808587031215615b1e57615b1d614c35565b5b5f615b2b87828801614d37565b9450506020615b3c878288016154f2565b9350506040615b4d87828801614e74565b925050606085013567ffffffffffffffff811115615b6e57615b6d614c39565b5b615b7a87828801614f87565b91505092959194509250565b615b8f8161571f565b82525050565b5f602082019050615ba85f830184615b86565b92915050565b5f805f60608486031215615bc557615bc4614c35565b5b5f615bd286828701614e74565b9350506020615be386828701614d37565b925050604084013567ffffffffffffffff811115615c0457615c03614c39565b5b615c1086828701614f87565b9150509250925092565b5f615c2482614e06565b9050919050565b5f615c3582615c1a565b9050919050565b615c4581615c2b565b8114615c4f575f80fd5b50565b5f81359050615c6081615c3c565b92915050565b5f60208284031215615c7b57615c7a614c35565b5b5f615c8884828501615c52565b91505092915050565b5f805f805f60a08688031215615caa57615ca9614c35565b5b5f615cb788828901614e74565b9550506020615cc888828901614e74565b945050604086013567ffffffffffffffff811115615ce957615ce8614c39565b5b615cf5888289016151b3565b935050606086013567ffffffffffffffff811115615d1657615d15614c39565b5b615d22888289016151b3565b925050608086013567ffffffffffffffff811115615d4357615d42614c39565b5b615d4f88828901614f87565b9150509295509295909350565b5f8083601f840112615d7157615d70614e88565b5b8235905067ffffffffffffffff811115615d8e57615d8d615544565b5b602083019150836001820283011115615daa57615da9615087565b5b9250929050565b5f805f8060608587031215615dc957615dc8614c35565b5b5f615dd687828801614e74565b9450506020615de787828801614d37565b935050604085013567ffffffffffffffff811115615e0857615e07614c39565b5b615e1487828801615d5c565b925092505092959194509250565b5f63ffffffff82169050919050565b615e3a81615e22565b8114615e44575f80fd5b50565b5f81359050615e5581615e31565b92915050565b5f60208284031215615e7057615e6f614c35565b5b5f615e7d84828501615e47565b91505092915050565b5f8060408385031215615e9c57615e9b614c35565b5b5f615ea985828601614e74565b9250506020615eba85828601614d37565b9150509250929050565b5f805f805f60a08688031215615edd57615edc614c35565b5b5f615eea88828901614e74565b9550506020615efb88828901614e74565b9450506040615f0c88828901614d37565b9350506060615f1d88828901614d37565b925050608086013567ffffffffffffffff811115615f3e57615f3d614c39565b5b615f4a88828901614f87565b9150509295509295909350565b5f819050919050565b5f615f7a615f75615f7084614e06565b615f57565b614e06565b9050919050565b5f615f8b82615f60565b9050919050565b5f615f9c82615f81565b9050919050565b615fac81615f92565b82525050565b5f602082019050615fc55f830184615fa3565b92915050565b7f4e487b71000000000000000000000000000000000000000000000000000000005f52602260045260245ffd5b5f600282049050600182168061600f57607f821691505b60208210810361602257616021615fcb565b5b50919050565b5f61604261603d6160388461571f565b615f57565b614cf0565b9050919050565b61605281616028565b82525050565b5f60408201905061606b5f830185614cf9565b6160786020830184616049565b9392505050565b7f4e487b71000000000000000000000000000000000000000000000000000000005f52603260045260245ffd5b5f6040820190506160bf5f830185614cf9565b6160cc6020830184614e36565b9392505050565b5f6160e56160e0846157f6565b614eee565b90508281526020810184848401111561610157616100614e8c565b5b61610c848285614d90565b509392505050565b5f82601f83011261612857616127614e88565b5b81516161388482602086016160d3565b91505092915050565b5f6020828403121561615657616155614c35565b5b5f82015167ffffffffffffffff81111561617357616172614c39565b5b61617f84828501616114565b91505092915050565b7f4e487b71000000000000000000000000000000000000000000000000000000005f52601160045260245ffd5b5f6161bf8261571f565b91506161ca8361571f565b9250828203905065ffffffffffff8111156161e8576161e7616188565b5b92915050565b5f6060820190506162015f830186614e36565b61620e6020830185614cf9565b61621b6040830184614cf9565b949350505050565b5f8151905061623181615730565b92915050565b5f6020828403121561624c5761624b614c35565b5b5f61625984828501616223565b91505092915050565b5f61626c8261571f565b91506162778361571f565b9250828201905065ffffffffffff81111561629557616294616188565b5b92915050565b5f81905092915050565b5f6162b0838561629b565b93506162bd838584614f38565b82840190509392505050565b5f6162d58284866162a5565b91508190509392505050565b5f81519050919050565b5f82825260208201905092915050565b5f819050602082019050919050565b61631381614e25565b82525050565b5f616324838361630a565b60208301905092915050565b5f602082019050919050565b5f616346826162e1565b61635081856162eb565b935061635b836162fb565b805f5b8381101561638b5781516163728882616319565b975061637d83616330565b92505060018101905061635e565b5085935050505092915050565b5f81519050919050565b5f82825260208201905092915050565b5f819050602082019050919050565b5f81519050919050565b5f82825260208201905092915050565b5f6163e5826163c1565b6163ef81856163cb565b93506163ff818560208601614d90565b61640881614d9e565b840191505092915050565b5f61641e83836163db565b905092915050565b5f602082019050919050565b5f61643c82616398565b61644681856163a2565b935083602082028501616458856163b2565b805f5b8581101561649357848403895281516164748582616413565b945061647f83616426565b925060208a0199505060018101905061645b565b50829750879550505050505092915050565b5f6080820190508181035f8301526164bd818761633c565b905081810360208301526164d18186615a28565b905081810360408301526164e58185616432565b90506164f460608301846153a9565b95945050505050565b5f8151905061650b81614d21565b92915050565b5f6020828403121561652657616525614c35565b5b5f616533848285016164fd565b91505092915050565b5f60408201905061654f5f830185614cf9565b61655c6020830184614cf9565b9392505050565b5f6060820190506165765f830186614cf9565b6165836020830185615435565b61659060408301846153a9565b949350505050565b6165a181614cbd565b81146165ab575f80fd5b50565b5f815190506165bc81616598565b92915050565b5f602082840312156165d7576165d6614c35565b5b5f6165e4848285016165ae565b91505092915050565b6165f6816154d0565b82525050565b5f60e08201905061660f5f83018a6153a9565b61661c6020830189614cf9565b61662960408301886165ed565b6166366060830187614e36565b6166436080830186614cf9565b61665060a08301856153a9565b61665d60c08301846153a9565b98975050505050505050565b5f60808201905061667c5f830187614cf9565b61668960208301866165ed565b6166966040830185614cf9565b81810360608301526166a88184614dae565b905095945050505050565b5f82825260208201905092915050565b5f6166cd826163c1565b6166d781856166b3565b93506166e7818560208601614d90565b6166f081614d9e565b840191505092915050565b5f60a08201905061670e5f830188614cf9565b61671b60208301876165ed565b6167286040830186614cf9565b818103606083015261673a8185614dae565b9050818103608083015261674e81846166c3565b90509695505050505050565b5f60408201905061676d5f830185616049565b61677a6020830184616049565b9392505050565b5f61678b82614cf0565b915061679683614cf0565b92508282019050808211156167ae576167ad616188565b5b92915050565b5f81519050919050565b5f82825260208201905092915050565b5f819050602082019050919050565b5f82825260208201905092915050565b5f6167f782614d76565b61680181856167dd565b9350616811818560208601614d90565b61681a81614d9e565b840191505092915050565b5f61683083836167ed565b905092915050565b5f602082019050919050565b5f61684e826167b4565b61685881856167be565b93508360208202850161686a856167ce565b805f5b858110156168a557848403895281516168868582616825565b945061689183616838565b925060208a0199505060018101905061686d565b50829750879550505050505092915050565b5f610120820190506168cb5f83018c614cf9565b6168d8602083018b614e36565b81810360408301526168ea818a61633c565b905081810360608301526168fe8189615a28565b905081810360808301526169128188616844565b905081810360a08301526169268187616432565b905061693560c0830186614cf9565b61694260e0830185614cf9565b8181036101008301526169558184614dae565b90509a9950505050505050505050565b5f60a0820190506169785f8301886153a9565b6169856020830187614cf9565b61699260408301866165ed565b61699f6060830185614e36565b6169ac6080830184614cf9565b9695505050505050565b5f6040820190506169c95f830185614e36565b6169d66020830184614cf9565b9392505050565b5f6169e782614cf0565b91506169f283614cf0565b9250828203905081811115616a0a57616a09616188565b5b92915050565b5f604082019050616a235f830185614e36565b616a306020830184614e36565b9392505050565b5f819050919050565b5f616a5a616a55616a5084616a37565b615f57565b614cf0565b9050919050565b616a6a81616a40565b82525050565b5f602082019050616a835f830184616a61565b92915050565b5f616aa3616a9e616a9984615e22565b615f57565b614cf0565b9050919050565b616ab381616a89565b82525050565b5f604082019050616acc5f830185616aaa565b616ad96020830184616aaa565b9392505050565b7f4e487b71000000000000000000000000000000000000000000000000000000005f52601260045260245ffd5b5f819050919050565b5f616b30616b2b616b2684616b0d565b615f57565b6154d0565b9050919050565b616b4081616b16565b82525050565b5f604082019050616b595f830185616b37565b616b666020830184614cf9565b9392505050565b5f815f1b9050919050565b5f616b92616b8d616b8884616a37565b616b6d565b6152be565b9050919050565b616ba281616b78565b82525050565b5f60a0820190508181035f830152616bc0818861633c565b90508181036020830152616bd48187615a28565b90508181036040830152616be88186616432565b9050616bf76060830185616b99565b616c0460808301846153a9565b9695505050505050565b5f81519050616c1c816152c7565b92915050565b5f60208284031215616c3757616c36614c35565b5b5f616c4484828501616c0e565b91505092915050565b5f60c0820190508181035f830152616c65818961633c565b90508181036020830152616c798188615a28565b90508181036040830152616c8d8187616432565b9050616c9c6060830186616b99565b616ca960808301856153a9565b616cb660a0830184614cf9565b979650505050505050565b5f819050919050565b5f616ce4616cdf616cda84616cc1565b615f57565b6154d0565b9050919050565b616cf481616cca565b82525050565b5f604082019050616d0d5f830185616ceb565b616d1a6020830184614cf9565b9392505050565b5f616d2b82614cf0565b9150616d3683614cf0565b9250828202616d4481614cf0565b91508282048414831517616d5b57616d5a616188565b5b5092915050565b5f819050919050565b5f616d85616d80616d7b84616d62565b615f57565b6154d0565b9050919050565b616d9581616d6b565b82525050565b5f604082019050616dae5f830185616d8c565b616dbb6020830184614cf9565b9392505050565b5f616dcc826154d0565b9150616dd7836154d0565b9250828201905060ff811115616df057616def616188565b5b92915050565b5f8160011c9050919050565b5f808291508390505b6001851115616e4b57808604811115616e2757616e26616188565b5b6001851615616e365780820291505b8081029050616e4485616df6565b9450616e0b565b94509492505050565b5f82616e635760019050616f1e565b81616e70575f9050616f1e565b8160018114616e865760028114616e9057616ebf565b6001915050616f1e565b60ff841115616ea257616ea1616188565b5b8360020a915084821115616eb957616eb8616188565b5b50616f1e565b5060208310610133831016604e8410600b8410161715616ef45782820a905083811115616eef57616eee616188565b5b616f1e565b616f018484846001616e02565b92509050818404811115616f1857616f17616188565b5b81810290505b9392505050565b5f616f2f82614cf0565b9150616f3a836154d0565b9250616f677fffffffffffffffffffffffffffffffffffffffffffffffffffffffffffffffff8484616e54565b905092915050565b5f604082019050616f825f8301856153a9565b8181036020830152616f9481846166c3565b90509392505050565b5f616fa7826163c1565b616fb1818561629b565b9350616fc1818560208601614d90565b80840191505092915050565b5f616fd88284616f9d565b915081905092915050565b5f60a082019050616ff65f8301886153a9565b61700360208301876153a9565b61701060408301866153a9565b61701d6060830185614cf9565b61702a6080830184614e36565b9695505050505050565b5f6080820190506170475f8301876153a9565b61705460208301866165ed565b61706160408301856153a9565b61706e60608301846153a9565b95945050505050565b5f61708182614cf0565b915061708c83614cf0565b92508261709c5761709b616ae0565b5b82820490509291505056fea264697066735822122098c2a7c65d79b92fc5cd3cab8f0a5faffbcb8b4aaa26ffaea280756d97c4af3a64736f6c634300081a0033",
  "linkReferences": {},
  "deployedLinkReferences": {}
}